{
  "_format": "hh-sol-artifact-1",
  "contractName": "MagiskNft",
  "sourceName": "contracts/MagicNft.sol",
  "abi": [
    {
      "inputs": [],
      "stateMutability": "nonpayable",
      "type": "constructor"
    },
    {
      "anonymous": false,
      "inputs": [
        {
          "indexed": true,
          "internalType": "address",
          "name": "account",
          "type": "address"
        },
        {
          "indexed": true,
          "internalType": "address",
          "name": "operator",
          "type": "address"
        },
        {
          "indexed": false,
          "internalType": "bool",
          "name": "approved",
          "type": "bool"
        }
      ],
      "name": "ApprovalForAll",
      "type": "event"
    },
    {
      "anonymous": false,
      "inputs": [
        {
          "indexed": false,
          "internalType": "address",
          "name": "account",
          "type": "address"
        },
        {
          "indexed": false,
          "internalType": "uint256",
          "name": "tokenId",
          "type": "uint256"
        },
        {
          "indexed": false,
          "internalType": "uint256",
          "name": "limitAvailable",
          "type": "uint256"
        }
      ],
      "name": "NFTMinted",
      "type": "event"
    },
    {
      "anonymous": false,
      "inputs": [
        {
          "indexed": true,
          "internalType": "address",
          "name": "user",
          "type": "address"
        },
        {
          "indexed": false,
          "internalType": "uint256",
          "name": "id",
          "type": "uint256"
        },
        {
          "indexed": false,
          "internalType": "uint256",
          "name": "limitAvailable",
          "type": "uint256"
        }
      ],
      "name": "NFTUsed",
      "type": "event"
    },
    {
      "anonymous": false,
      "inputs": [
        {
          "indexed": true,
          "internalType": "address",
          "name": "previousOwner",
          "type": "address"
        },
        {
          "indexed": true,
          "internalType": "address",
          "name": "newOwner",
          "type": "address"
        }
      ],
      "name": "OwnershipTransferred",
      "type": "event"
    },
    {
      "anonymous": false,
      "inputs": [
        {
          "indexed": true,
          "internalType": "address",
          "name": "operator",
          "type": "address"
        },
        {
          "indexed": true,
          "internalType": "address",
          "name": "from",
          "type": "address"
        },
        {
          "indexed": true,
          "internalType": "address",
          "name": "to",
          "type": "address"
        },
        {
          "indexed": false,
          "internalType": "uint256[]",
          "name": "ids",
          "type": "uint256[]"
        },
        {
          "indexed": false,
          "internalType": "uint256[]",
          "name": "values",
          "type": "uint256[]"
        }
      ],
      "name": "TransferBatch",
      "type": "event"
    },
    {
      "anonymous": false,
      "inputs": [
        {
          "indexed": true,
          "internalType": "address",
          "name": "operator",
          "type": "address"
        },
        {
          "indexed": true,
          "internalType": "address",
          "name": "from",
          "type": "address"
        },
        {
          "indexed": true,
          "internalType": "address",
          "name": "to",
          "type": "address"
        },
        {
          "indexed": false,
          "internalType": "uint256",
          "name": "id",
          "type": "uint256"
        },
        {
          "indexed": false,
          "internalType": "uint256",
          "name": "value",
          "type": "uint256"
        }
      ],
      "name": "TransferSingle",
      "type": "event"
    },
    {
      "anonymous": false,
      "inputs": [
        {
          "indexed": false,
          "internalType": "string",
          "name": "value",
          "type": "string"
        },
        {
          "indexed": true,
          "internalType": "uint256",
          "name": "id",
          "type": "uint256"
        }
      ],
      "name": "URI",
      "type": "event"
    },
    {
      "inputs": [],
      "name": "GOLD_NFT_ID",
      "outputs": [
        {
          "internalType": "uint8",
          "name": "",
          "type": "uint8"
        }
      ],
      "stateMutability": "view",
      "type": "function"
    },
    {
      "inputs": [],
      "name": "GOLD_PRICE",
      "outputs": [
        {
          "internalType": "uint256",
          "name": "",
          "type": "uint256"
        }
      ],
      "stateMutability": "view",
      "type": "function"
    },
    {
      "inputs": [],
      "name": "GOLD_USE_LIMIT",
      "outputs": [
        {
          "internalType": "uint8",
          "name": "",
          "type": "uint8"
        }
      ],
      "stateMutability": "view",
      "type": "function"
    },
    {
      "inputs": [],
      "name": "NAME",
      "outputs": [
        {
          "internalType": "string",
          "name": "",
          "type": "string"
        }
      ],
      "stateMutability": "view",
      "type": "function"
    },
    {
      "inputs": [],
      "name": "SILVER_NFT_ID",
      "outputs": [
        {
          "internalType": "uint8",
          "name": "",
          "type": "uint8"
        }
      ],
      "stateMutability": "view",
      "type": "function"
    },
    {
      "inputs": [],
      "name": "SILVER_PRICE",
      "outputs": [
        {
          "internalType": "uint256",
          "name": "",
          "type": "uint256"
        }
      ],
      "stateMutability": "view",
      "type": "function"
    },
    {
      "inputs": [],
      "name": "SILVER_USE_LIMIT",
      "outputs": [
        {
          "internalType": "uint8",
          "name": "",
          "type": "uint8"
        }
      ],
      "stateMutability": "view",
      "type": "function"
    },
    {
      "inputs": [],
      "name": "SYMBOL",
      "outputs": [
        {
          "internalType": "string",
          "name": "",
          "type": "string"
        }
      ],
      "stateMutability": "view",
      "type": "function"
    },
    {
      "inputs": [
        {
          "internalType": "address",
          "name": "account",
          "type": "address"
        },
        {
          "internalType": "uint256",
          "name": "id",
          "type": "uint256"
        }
      ],
      "name": "balanceOf",
      "outputs": [
        {
          "internalType": "uint256",
          "name": "",
          "type": "uint256"
        }
      ],
      "stateMutability": "view",
      "type": "function"
    },
    {
      "inputs": [
        {
          "internalType": "address[]",
          "name": "accounts",
          "type": "address[]"
        },
        {
          "internalType": "uint256[]",
          "name": "ids",
          "type": "uint256[]"
        }
      ],
      "name": "balanceOfBatch",
      "outputs": [
        {
          "internalType": "uint256[]",
          "name": "",
          "type": "uint256[]"
        }
      ],
      "stateMutability": "view",
      "type": "function"
    },
    {
      "inputs": [],
      "name": "buyGoldNFT",
      "outputs": [],
      "stateMutability": "payable",
      "type": "function"
    },
    {
      "inputs": [],
      "name": "buySilverNFT",
      "outputs": [],
      "stateMutability": "payable",
      "type": "function"
    },
    {
      "inputs": [
        {
          "internalType": "address",
          "name": "account",
          "type": "address"
        },
        {
          "internalType": "uint8",
          "name": "tokenId",
          "type": "uint8"
        }
      ],
      "name": "dropTo",
      "outputs": [],
      "stateMutability": "nonpayable",
      "type": "function"
    },
    {
      "inputs": [
        {
          "internalType": "address",
          "name": "user",
          "type": "address"
        },
        {
          "internalType": "uint8",
          "name": "tokenId",
          "type": "uint8"
        }
      ],
      "name": "getUserNFTLimit",
      "outputs": [
        {
          "internalType": "uint8",
          "name": "",
          "type": "uint8"
        }
      ],
      "stateMutability": "view",
      "type": "function"
    },
    {
      "inputs": [
        {
          "internalType": "address",
          "name": "",
          "type": "address"
        }
      ],
      "name": "hasGoldNft",
      "outputs": [
        {
          "internalType": "bool",
          "name": "",
          "type": "bool"
        }
      ],
      "stateMutability": "view",
      "type": "function"
    },
    {
      "inputs": [
        {
          "internalType": "address",
          "name": "",
          "type": "address"
        }
      ],
      "name": "hasSilverNft",
      "outputs": [
        {
          "internalType": "bool",
          "name": "",
          "type": "bool"
        }
      ],
      "stateMutability": "view",
      "type": "function"
    },
    {
      "inputs": [
        {
          "internalType": "address",
          "name": "account",
          "type": "address"
        },
        {
          "internalType": "address",
          "name": "operator",
          "type": "address"
        }
      ],
      "name": "isApprovedForAll",
      "outputs": [
        {
          "internalType": "bool",
          "name": "",
          "type": "bool"
        }
      ],
      "stateMutability": "view",
      "type": "function"
    },
    {
      "inputs": [],
      "name": "owner",
      "outputs": [
        {
          "internalType": "address",
          "name": "",
          "type": "address"
        }
      ],
      "stateMutability": "view",
      "type": "function"
    },
    {
      "inputs": [],
      "name": "renounceOwnership",
      "outputs": [],
      "stateMutability": "nonpayable",
      "type": "function"
    },
    {
      "inputs": [
        {
          "internalType": "address",
          "name": "from",
          "type": "address"
        },
        {
          "internalType": "address",
          "name": "to",
          "type": "address"
        },
        {
          "internalType": "uint256[]",
          "name": "ids",
          "type": "uint256[]"
        },
        {
          "internalType": "uint256[]",
          "name": "amounts",
          "type": "uint256[]"
        },
        {
          "internalType": "bytes",
          "name": "data",
          "type": "bytes"
        }
      ],
      "name": "safeBatchTransferFrom",
      "outputs": [],
      "stateMutability": "nonpayable",
      "type": "function"
    },
    {
      "inputs": [
        {
          "internalType": "address",
          "name": "from",
          "type": "address"
        },
        {
          "internalType": "address",
          "name": "to",
          "type": "address"
        },
        {
          "internalType": "uint256",
          "name": "id",
          "type": "uint256"
        },
        {
          "internalType": "uint256",
          "name": "amount",
          "type": "uint256"
        },
        {
          "internalType": "bytes",
          "name": "data",
          "type": "bytes"
        }
      ],
      "name": "safeTransferFrom",
      "outputs": [],
      "stateMutability": "nonpayable",
      "type": "function"
    },
    {
      "inputs": [
        {
          "internalType": "address",
          "name": "operator",
          "type": "address"
        },
        {
          "internalType": "bool",
          "name": "approved",
          "type": "bool"
        }
      ],
      "name": "setApprovalForAll",
      "outputs": [],
      "stateMutability": "nonpayable",
      "type": "function"
    },
    {
      "inputs": [
        {
          "internalType": "bytes4",
          "name": "interfaceId",
          "type": "bytes4"
        }
      ],
      "name": "supportsInterface",
      "outputs": [
        {
          "internalType": "bool",
          "name": "",
          "type": "bool"
        }
      ],
      "stateMutability": "view",
      "type": "function"
    },
    {
      "inputs": [
        {
          "internalType": "address",
          "name": "newOwner",
          "type": "address"
        }
      ],
      "name": "transferOwnership",
      "outputs": [],
      "stateMutability": "nonpayable",
      "type": "function"
    },
    {
      "inputs": [
        {
          "internalType": "uint256",
          "name": "tokenId",
          "type": "uint256"
        }
      ],
      "name": "uri",
      "outputs": [
        {
          "internalType": "string",
          "name": "",
          "type": "string"
        }
      ],
      "stateMutability": "pure",
      "type": "function"
    },
    {
      "inputs": [
        {
          "internalType": "uint8",
          "name": "tokenId",
          "type": "uint8"
        }
      ],
      "name": "useNFT",
      "outputs": [],
      "stateMutability": "nonpayable",
      "type": "function"
    }
  ],
  "bytecode": "0x60806040523480156200001157600080fd5b506040518060200160405280600081525062000033816200005a60201b60201c565b5062000054620000486200006f60201b60201c565b6200007760201b60201c565b6200049e565b80600290816200006b9190620003b7565b5050565b600033905090565b6000600360009054906101000a900473ffffffffffffffffffffffffffffffffffffffff16905081600360006101000a81548173ffffffffffffffffffffffffffffffffffffffff021916908373ffffffffffffffffffffffffffffffffffffffff1602179055508173ffffffffffffffffffffffffffffffffffffffff168173ffffffffffffffffffffffffffffffffffffffff167f8be0079c531659141344cd1fd0a4f28419497f9722a3daafe3b4186f6b6457e060405160405180910390a35050565b600081519050919050565b7f4e487b7100000000000000000000000000000000000000000000000000000000600052604160045260246000fd5b7f4e487b7100000000000000000000000000000000000000000000000000000000600052602260045260246000fd5b60006002820490506001821680620001bf57607f821691505b602082108103620001d557620001d462000177565b5b50919050565b60008190508160005260206000209050919050565b60006020601f8301049050919050565b600082821b905092915050565b6000600883026200023f7fffffffffffffffffffffffffffffffffffffffffffffffffffffffffffffffff8262000200565b6200024b868362000200565b95508019841693508086168417925050509392505050565b6000819050919050565b6000819050919050565b600062000298620002926200028c8462000263565b6200026d565b62000263565b9050919050565b6000819050919050565b620002b48362000277565b620002cc620002c3826200029f565b8484546200020d565b825550505050565b600090565b620002e3620002d4565b620002f0818484620002a9565b505050565b5b8181101562000318576200030c600082620002d9565b600181019050620002f6565b5050565b601f82111562000367576200033181620001db565b6200033c84620001f0565b810160208510156200034c578190505b620003646200035b85620001f0565b830182620002f5565b50505b505050565b600082821c905092915050565b60006200038c600019846008026200036c565b1980831691505092915050565b6000620003a7838362000379565b9150826002028217905092915050565b620003c2826200013d565b67ffffffffffffffff811115620003de57620003dd62000148565b5b620003ea8254620001a6565b620003f78282856200031c565b600060209050601f8311600181146200042f57600084156200041a578287015190505b62000426858262000399565b86555062000496565b601f1984166200043f86620001db565b60005b82811015620004695784890151825560018201915060208501945060208101905062000442565b8683101562000489578489015162000485601f89168262000379565b8355505b6001600288020188555050505b505050505050565b61474f80620004ae6000396000f3fe6080604052600436106101805760003560e01c8063715018a6116100d1578063a22cb4651161008a578063e985e9c511610064578063e985e9c514610557578063f242432a14610594578063f2fde38b146105bd578063f76f8d78146105e657610180565b8063a22cb465146104d8578063a3f4df7e14610501578063e796933e1461052c57610180565b8063715018a6146103da57806377a1bf43146103f15780638281b3ac1461041c5780638da5cb5b14610447578063927cd9c114610472578063a1e9d565146104af57610180565b80632a194f241161013e578063521d122c11610118578063521d122c1461030a5780635c85b9fd146103475780635dbc6d6c146103725780635f01e7981461039d57610180565b80632a194f241461027b5780632eb2c2d6146102a45780634e1273f4146102cd57610180565b8062fdd58e1461018557806301ffc9a7146101c2578063079f0b68146101ff5780630e89341c1461022a57806311dd4435146102675780632707017c14610271575b600080fd5b34801561019157600080fd5b506101ac60048036038101906101a79190612cd1565b610611565b6040516101b99190612d20565b60405180910390f35b3480156101ce57600080fd5b506101e960048036038101906101e49190612d93565b6106d9565b6040516101f69190612ddb565b60405180910390f35b34801561020b57600080fd5b506102146107bb565b6040516102219190612e12565b60405180910390f35b34801561023657600080fd5b50610251600480360381019061024c9190612e2d565b6107c0565b60405161025e9190612ef3565b60405180910390f35b61026f6107f1565b005b6102796109b3565b005b34801561028757600080fd5b506102a2600480360381019061029d9190612f41565b610b74565b005b3480156102b057600080fd5b506102cb60048036038101906102c6919061316b565b610ffd565b005b3480156102d957600080fd5b506102f460048036038101906102ef91906132fd565b61109e565b6040516103019190613433565b60405180910390f35b34801561031657600080fd5b50610331600480360381019061032c9190613455565b6111b7565b60405161033e9190612e12565b60405180910390f35b34801561035357600080fd5b5061035c611225565b6040516103699190612e12565b60405180910390f35b34801561037e57600080fd5b5061038761122a565b6040516103949190612d20565b60405180910390f35b3480156103a957600080fd5b506103c460048036038101906103bf9190613495565b611235565b6040516103d19190612ddb565b60405180910390f35b3480156103e657600080fd5b506103ef611255565b005b3480156103fd57600080fd5b50610406611269565b6040516104139190612e12565b60405180910390f35b34801561042857600080fd5b5061043161126e565b60405161043e9190612d20565b60405180910390f35b34801561045357600080fd5b5061045c611279565b60405161046991906134d1565b60405180910390f35b34801561047e57600080fd5b5061049960048036038101906104949190613495565b6112a3565b6040516104a69190612ddb565b60405180910390f35b3480156104bb57600080fd5b506104d660048036038101906104d19190613455565b6112c3565b005b3480156104e457600080fd5b506104ff60048036038101906104fa9190613518565b611694565b005b34801561050d57600080fd5b506105166116aa565b6040516105239190612ef3565b60405180910390f35b34801561053857600080fd5b506105416116e3565b60405161054e9190612e12565b60405180910390f35b34801561056357600080fd5b5061057e60048036038101906105799190613558565b6116e8565b60405161058b9190612ddb565b60405180910390f35b3480156105a057600080fd5b506105bb60048036038101906105b69190613598565b61177c565b005b3480156105c957600080fd5b506105e460048036038101906105df9190613495565b61181d565b005b3480156105f257600080fd5b506105fb6118a0565b6040516106089190612ef3565b60405180910390f35b60008073ffffffffffffffffffffffffffffffffffffffff168373ffffffffffffffffffffffffffffffffffffffff1603610681576040517f08c379a0000000000000000000000000000000000000000000000000000000008152600401610678906136a1565b60405180910390fd5b60008083815260200190815260200160002060008473ffffffffffffffffffffffffffffffffffffffff1673ffffffffffffffffffffffffffffffffffffffff16815260200190815260200160002054905092915050565b60007fd9b67a26000000000000000000000000000000000000000000000000000000007bffffffffffffffffffffffffffffffffffffffffffffffffffffffff1916827bffffffffffffffffffffffffffffffffffffffffffffffffffffffff191614806107a457507f0e89341c000000000000000000000000000000000000000000000000000000007bffffffffffffffffffffffffffffffffffffffffffffffffffffffff1916827bffffffffffffffffffffffffffffffffffffffffffffffffffffffff1916145b806107b457506107b3826118d9565b5b9050919050565b600181565b60606107cb82611943565b6040516020016107db91906137e1565b6040516020818303038152906040529050919050565b600660003373ffffffffffffffffffffffffffffffffffffffff1673ffffffffffffffffffffffffffffffffffffffff16815260200190815260200160002060009054906101000a900460ff161561087e576040517f08c379a00000000000000000000000000000000000000000000000000000000081526004016108759061385a565b60405180910390fd5b6611c37937e080003410156108c8576040517f08c379a00000000000000000000000000000000000000000000000000000000081526004016108bf906138c6565b60405180910390fd5b6001600660003373ffffffffffffffffffffffffffffffffffffffff1673ffffffffffffffffffffffffffffffffffffffff16815260200190815260200160002060006101000a81548160ff0219169083151502179055506008600460003373ffffffffffffffffffffffffffffffffffffffff1673ffffffffffffffffffffffffffffffffffffffff1681526020019081526020016000206000600160ff1660ff16815260200190815260200160002060006101000a81548160ff021916908360ff1602179055506109b133600160ff16600160405180602001604052806000815250611a11565b565b600560003373ffffffffffffffffffffffffffffffffffffffff1673ffffffffffffffffffffffffffffffffffffffff16815260200190815260200160002060009054906101000a900460ff1615610a40576040517f08c379a0000000000000000000000000000000000000000000000000000000008152600401610a3790613932565b60405180910390fd5b660aa87bee538000341015610a8a576040517f08c379a0000000000000000000000000000000000000000000000000000000008152600401610a81906138c6565b60405180910390fd5b6001600560003373ffffffffffffffffffffffffffffffffffffffff1673ffffffffffffffffffffffffffffffffffffffff16815260200190815260200160002060006101000a81548160ff0219169083151502179055506005600460003373ffffffffffffffffffffffffffffffffffffffff1673ffffffffffffffffffffffffffffffffffffffff16815260200190815260200160002060008060ff1660ff16815260200190815260200160002060006101000a81548160ff021916908360ff160217905550610b7233600060ff16600160405180602001604052806000815250611a11565b565b60008160ff161480610b89575060018160ff16145b610bc8576040517f08c379a0000000000000000000000000000000000000000000000000000000008152600401610bbf9061399e565b60405180910390fd5b6000600460003373ffffffffffffffffffffffffffffffffffffffff1673ffffffffffffffffffffffffffffffffffffffff16815260200190815260200160002060008360ff1660ff16815260200190815260200160002060009054906101000a900460ff1660ff1611610c71576040517f08c379a0000000000000000000000000000000000000000000000000000000008152600401610c6890613a0a565b60405180910390fd5b600081905060008160ff1603610e3f576000600460003373ffffffffffffffffffffffffffffffffffffffff1673ffffffffffffffffffffffffffffffffffffffff16815260200190815260200160002060008360ff1660ff168152602001908152602001600020600081819054906101000a900460ff1680929190610cf690613a59565b91906101000a81548160ff021916908360ff16021790555060ff1690503373ffffffffffffffffffffffffffffffffffffffff167f82f87ac690e2fc8b4ee2c1c09d862a683849b5e3017d7dc932cba25f355d0cbe8383604051610d5b929190613abd565b60405180910390a26000600460003373ffffffffffffffffffffffffffffffffffffffff1673ffffffffffffffffffffffffffffffffffffffff16815260200190815260200160002060008460ff1660ff16815260200190815260200160002060009054906101000a900460ff1660ff1603610e39576000600560003373ffffffffffffffffffffffffffffffffffffffff1673ffffffffffffffffffffffffffffffffffffffff16815260200190815260200160002060006101000a81548160ff021916908315150217905550610e38338360ff166001611bc1565b5b50610ff9565b6000600460003373ffffffffffffffffffffffffffffffffffffffff1673ffffffffffffffffffffffffffffffffffffffff16815260200190815260200160002060008360ff1660ff168152602001908152602001600020600081819054906101000a900460ff1680929190610eb490613a59565b91906101000a81548160ff021916908360ff16021790555060ff1690503373ffffffffffffffffffffffffffffffffffffffff167f82f87ac690e2fc8b4ee2c1c09d862a683849b5e3017d7dc932cba25f355d0cbe8383604051610f19929190613abd565b60405180910390a26000600460003373ffffffffffffffffffffffffffffffffffffffff1673ffffffffffffffffffffffffffffffffffffffff16815260200190815260200160002060008460ff1660ff16815260200190815260200160002060009054906101000a900460ff1660ff1603610ff7576000600660003373ffffffffffffffffffffffffffffffffffffffff1673ffffffffffffffffffffffffffffffffffffffff16815260200190815260200160002060006101000a81548160ff021916908315150217905550610ff6338360ff166001611bc1565b5b505b5050565b611005611e07565b73ffffffffffffffffffffffffffffffffffffffff168573ffffffffffffffffffffffffffffffffffffffff16148061104b575061104a85611045611e07565b6116e8565b5b61108a576040517f08c379a000000000000000000000000000000000000000000000000000000000815260040161108190613b58565b60405180910390fd5b6110978585858585611e0f565b5050505050565b606081518351146110e4576040517f08c379a00000000000000000000000000000000000000000000000000000000081526004016110db90613bea565b60405180910390fd5b6000835167ffffffffffffffff81111561110157611100612f73565b5b60405190808252806020026020018201604052801561112f5781602001602082028036833780820191505090505b50905060005b84518110156111ac5761117c85828151811061115457611153613c0a565b5b602002602001015185838151811061116f5761116e613c0a565b5b6020026020010151610611565b82828151811061118f5761118e613c0a565b5b602002602001018181525050806111a590613c39565b9050611135565b508091505092915050565b6000600460008473ffffffffffffffffffffffffffffffffffffffff1673ffffffffffffffffffffffffffffffffffffffff16815260200190815260200160002060008360ff1660ff16815260200190815260200160002060009054906101000a900460ff16905092915050565b600581565b660aa87bee53800081565b60066020528060005260406000206000915054906101000a900460ff1681565b61125d612130565b61126760006121ae565b565b600881565b6611c37937e0800081565b6000600360009054906101000a900473ffffffffffffffffffffffffffffffffffffffff16905090565b60056020528060005260406000206000915054906101000a900460ff1681565b6112cb612130565b60008160ff1614806112e0575060018160ff16145b61131f576040517f08c379a000000000000000000000000000000000000000000000000000000000815260040161131690613ccd565b60405180910390fd5b60008160ff16036114df57600560008373ffffffffffffffffffffffffffffffffffffffff1673ffffffffffffffffffffffffffffffffffffffff16815260200190815260200160002060009054906101000a900460ff16156113b7576040517f08c379a00000000000000000000000000000000000000000000000000000000081526004016113ae90613d39565b60405180910390fd5b6001600560008473ffffffffffffffffffffffffffffffffffffffff1673ffffffffffffffffffffffffffffffffffffffff16815260200190815260200160002060006101000a81548160ff0219169083151502179055506005600460008473ffffffffffffffffffffffffffffffffffffffff1673ffffffffffffffffffffffffffffffffffffffff16815260200190815260200160002060008360ff1660ff16815260200190815260200160002060006101000a81548160ff021916908360ff16021790555061149e828260ff16600160405180602001604052806000815250611a11565b7f3a8a89b59a31c39a36febecb987e0657ab7b7c73b60ebacb44dcb9886c2d5c8a828260056040516114d293929190613d59565b60405180910390a1611690565b600660008373ffffffffffffffffffffffffffffffffffffffff1673ffffffffffffffffffffffffffffffffffffffff16815260200190815260200160002060009054906101000a900460ff161561156c576040517f08c379a000000000000000000000000000000000000000000000000000000000815260040161156390613ddc565b60405180910390fd5b6001600660008473ffffffffffffffffffffffffffffffffffffffff1673ffffffffffffffffffffffffffffffffffffffff16815260200190815260200160002060006101000a81548160ff0219169083151502179055506008600460008473ffffffffffffffffffffffffffffffffffffffff1673ffffffffffffffffffffffffffffffffffffffff16815260200190815260200160002060008360ff1660ff16815260200190815260200160002060006101000a81548160ff021916908360ff160217905550611653828260ff16600160405180602001604052806000815250611a11565b7f3a8a89b59a31c39a36febecb987e0657ab7b7c73b60ebacb44dcb9886c2d5c8a8282600860405161168793929190613d59565b60405180910390a15b5050565b6116a661169f611e07565b8383612274565b5050565b6040518060400160405280600a81526020017f4d616769736b204e66740000000000000000000000000000000000000000000081525081565b600081565b6000600160008473ffffffffffffffffffffffffffffffffffffffff1673ffffffffffffffffffffffffffffffffffffffff16815260200190815260200160002060008373ffffffffffffffffffffffffffffffffffffffff1673ffffffffffffffffffffffffffffffffffffffff16815260200190815260200160002060009054906101000a900460ff16905092915050565b611784611e07565b73ffffffffffffffffffffffffffffffffffffffff168573ffffffffffffffffffffffffffffffffffffffff1614806117ca57506117c9856117c4611e07565b6116e8565b5b611809576040517f08c379a000000000000000000000000000000000000000000000000000000000815260040161180090613b58565b60405180910390fd5b61181685858585856123e0565b5050505050565b611825612130565b600073ffffffffffffffffffffffffffffffffffffffff168173ffffffffffffffffffffffffffffffffffffffff1603611894576040517f08c379a000000000000000000000000000000000000000000000000000000000815260040161188b90613e6e565b60405180910390fd5b61189d816121ae565b50565b6040518060400160405280600681526020017f4d414749534b000000000000000000000000000000000000000000000000000081525081565b60007f01ffc9a7000000000000000000000000000000000000000000000000000000007bffffffffffffffffffffffffffffffffffffffffffffffffffffffff1916827bffffffffffffffffffffffffffffffffffffffffffffffffffffffff1916149050919050565b6060600060016119528461267b565b01905060008167ffffffffffffffff81111561197157611970612f73565b5b6040519080825280601f01601f1916602001820160405280156119a35781602001600182028036833780820191505090505b509050600082602001820190505b600115611a06578080600190039150507f3031323334353637383961626364656600000000000000000000000000000000600a86061a8153600a85816119fa576119f9613e8e565b5b049450600085036119b1575b819350505050919050565b600073ffffffffffffffffffffffffffffffffffffffff168473ffffffffffffffffffffffffffffffffffffffff1603611a80576040517f08c379a0000000000000000000000000000000000000000000000000000000008152600401611a7790613f2f565b60405180910390fd5b6000611a8a611e07565b90506000611a97856127ce565b90506000611aa4856127ce565b9050611ab583600089858589612848565b8460008088815260200190815260200160002060008973ffffffffffffffffffffffffffffffffffffffff1673ffffffffffffffffffffffffffffffffffffffff1681526020019081526020016000206000828254611b149190613f4f565b925050819055508673ffffffffffffffffffffffffffffffffffffffff16600073ffffffffffffffffffffffffffffffffffffffff168473ffffffffffffffffffffffffffffffffffffffff167fc3d58168c5ae7397731d063d5bbf3d657854427343f4c083240f7aacaa2d0f628989604051611b92929190613fa5565b60405180910390a4611ba983600089858589612850565b611bb883600089898989612858565b50505050505050565b600073ffffffffffffffffffffffffffffffffffffffff168373ffffffffffffffffffffffffffffffffffffffff1603611c30576040517f08c379a0000000000000000000000000000000000000000000000000000000008152600401611c2790614040565b60405180910390fd5b6000611c3a611e07565b90506000611c47846127ce565b90506000611c54846127ce565b9050611c7483876000858560405180602001604052806000815250612848565b600080600087815260200190815260200160002060008873ffffffffffffffffffffffffffffffffffffffff1673ffffffffffffffffffffffffffffffffffffffff16815260200190815260200160002054905084811015611d0b576040517f08c379a0000000000000000000000000000000000000000000000000000000008152600401611d02906140d2565b60405180910390fd5b84810360008088815260200190815260200160002060008973ffffffffffffffffffffffffffffffffffffffff1673ffffffffffffffffffffffffffffffffffffffff16815260200190815260200160002081905550600073ffffffffffffffffffffffffffffffffffffffff168773ffffffffffffffffffffffffffffffffffffffff168573ffffffffffffffffffffffffffffffffffffffff167fc3d58168c5ae7397731d063d5bbf3d657854427343f4c083240f7aacaa2d0f628989604051611dd8929190613fa5565b60405180910390a4611dfe84886000868660405180602001604052806000815250612850565b50505050505050565b600033905090565b8151835114611e53576040517f08c379a0000000000000000000000000000000000000000000000000000000008152600401611e4a90614164565b60405180910390fd5b600073ffffffffffffffffffffffffffffffffffffffff168473ffffffffffffffffffffffffffffffffffffffff1603611ec2576040517f08c379a0000000000000000000000000000000000000000000000000000000008152600401611eb9906141f6565b60405180910390fd5b6000611ecc611e07565b9050611edc818787878787612848565b60005b845181101561208d576000858281518110611efd57611efc613c0a565b5b602002602001015190506000858381518110611f1c57611f1b613c0a565b5b60200260200101519050600080600084815260200190815260200160002060008b73ffffffffffffffffffffffffffffffffffffffff1673ffffffffffffffffffffffffffffffffffffffff16815260200190815260200160002054905081811015611fbd576040517f08c379a0000000000000000000000000000000000000000000000000000000008152600401611fb490614288565b60405180910390fd5b81810360008085815260200190815260200160002060008c73ffffffffffffffffffffffffffffffffffffffff1673ffffffffffffffffffffffffffffffffffffffff168152602001908152602001600020819055508160008085815260200190815260200160002060008b73ffffffffffffffffffffffffffffffffffffffff1673ffffffffffffffffffffffffffffffffffffffff16815260200190815260200160002060008282546120729190613f4f565b925050819055505050508061208690613c39565b9050611edf565b508473ffffffffffffffffffffffffffffffffffffffff168673ffffffffffffffffffffffffffffffffffffffff168273ffffffffffffffffffffffffffffffffffffffff167f4a39dc06d4c0dbc64b70af90fd698a233a518aa5d07e595d983b8c0526c8f7fb87876040516121049291906142a8565b60405180910390a461211a818787878787612850565b612128818787878787612a2f565b505050505050565b612138611e07565b73ffffffffffffffffffffffffffffffffffffffff16612156611279565b73ffffffffffffffffffffffffffffffffffffffff16146121ac576040517f08c379a00000000000000000000000000000000000000000000000000000000081526004016121a39061432b565b60405180910390fd5b565b6000600360009054906101000a900473ffffffffffffffffffffffffffffffffffffffff16905081600360006101000a81548173ffffffffffffffffffffffffffffffffffffffff021916908373ffffffffffffffffffffffffffffffffffffffff1602179055508173ffffffffffffffffffffffffffffffffffffffff168173ffffffffffffffffffffffffffffffffffffffff167f8be0079c531659141344cd1fd0a4f28419497f9722a3daafe3b4186f6b6457e060405160405180910390a35050565b8173ffffffffffffffffffffffffffffffffffffffff168373ffffffffffffffffffffffffffffffffffffffff16036122e2576040517f08c379a00000000000000000000000000000000000000000000000000000000081526004016122d9906143bd565b60405180910390fd5b80600160008573ffffffffffffffffffffffffffffffffffffffff1673ffffffffffffffffffffffffffffffffffffffff16815260200190815260200160002060008473ffffffffffffffffffffffffffffffffffffffff1673ffffffffffffffffffffffffffffffffffffffff16815260200190815260200160002060006101000a81548160ff0219169083151502179055508173ffffffffffffffffffffffffffffffffffffffff168373ffffffffffffffffffffffffffffffffffffffff167f17307eab39ab6107e8899845ad3d59bd9653f200f220920489ca2b5937696c31836040516123d39190612ddb565b60405180910390a3505050565b600073ffffffffffffffffffffffffffffffffffffffff168473ffffffffffffffffffffffffffffffffffffffff160361244f576040517f08c379a0000000000000000000000000000000000000000000000000000000008152600401612446906141f6565b60405180910390fd5b6000612459611e07565b90506000612466856127ce565b90506000612473856127ce565b9050612483838989858589612848565b600080600088815260200190815260200160002060008a73ffffffffffffffffffffffffffffffffffffffff1673ffffffffffffffffffffffffffffffffffffffff1681526020019081526020016000205490508581101561251a576040517f08c379a000000000000000000000000000000000000000000000000000000000815260040161251190614288565b60405180910390fd5b85810360008089815260200190815260200160002060008b73ffffffffffffffffffffffffffffffffffffffff1673ffffffffffffffffffffffffffffffffffffffff168152602001908152602001600020819055508560008089815260200190815260200160002060008a73ffffffffffffffffffffffffffffffffffffffff1673ffffffffffffffffffffffffffffffffffffffff16815260200190815260200160002060008282546125cf9190613f4f565b925050819055508773ffffffffffffffffffffffffffffffffffffffff168973ffffffffffffffffffffffffffffffffffffffff168573ffffffffffffffffffffffffffffffffffffffff167fc3d58168c5ae7397731d063d5bbf3d657854427343f4c083240f7aacaa2d0f628a8a60405161264c929190613fa5565b60405180910390a4612662848a8a86868a612850565b612670848a8a8a8a8a612858565b505050505050505050565b600080600090507a184f03e93ff9f4daa797ed6e38ed64bf6a1f01000000000000000083106126d9577a184f03e93ff9f4daa797ed6e38ed64bf6a1f01000000000000000083816126cf576126ce613e8e565b5b0492506040810190505b6d04ee2d6d415b85acef81000000008310612716576d04ee2d6d415b85acef8100000000838161270c5761270b613e8e565b5b0492506020810190505b662386f26fc10000831061274557662386f26fc10000838161273b5761273a613e8e565b5b0492506010810190505b6305f5e100831061276e576305f5e100838161276457612763613e8e565b5b0492506008810190505b612710831061279357612710838161278957612788613e8e565b5b0492506004810190505b606483106127b657606483816127ac576127ab613e8e565b5b0492506002810190505b600a83106127c5576001810190505b80915050919050565b60606000600167ffffffffffffffff8111156127ed576127ec612f73565b5b60405190808252806020026020018201604052801561281b5781602001602082028036833780820191505090505b509050828160008151811061283357612832613c0a565b5b60200260200101818152505080915050919050565b505050505050565b505050505050565b6128778473ffffffffffffffffffffffffffffffffffffffff16612c06565b15612a27578373ffffffffffffffffffffffffffffffffffffffff1663f23a6e6187878686866040518663ffffffff1660e01b81526004016128bd959493929190614432565b6020604051808303816000875af19250505080156128f957506040513d601f19601f820116820180604052508101906128f691906144a1565b60015b61299e576129056144db565b806308c379a00361296157506129196144fd565b806129245750612963565b806040517f08c379a00000000000000000000000000000000000000000000000000000000081526004016129589190612ef3565b60405180910390fd5b505b6040517f08c379a0000000000000000000000000000000000000000000000000000000008152600401612995906145ff565b60405180910390fd5b63f23a6e6160e01b7bffffffffffffffffffffffffffffffffffffffffffffffffffffffff1916817bffffffffffffffffffffffffffffffffffffffffffffffffffffffff191614612a25576040517f08c379a0000000000000000000000000000000000000000000000000000000008152600401612a1c90614691565b60405180910390fd5b505b505050505050565b612a4e8473ffffffffffffffffffffffffffffffffffffffff16612c06565b15612bfe578373ffffffffffffffffffffffffffffffffffffffff1663bc197c8187878686866040518663ffffffff1660e01b8152600401612a949594939291906146b1565b6020604051808303816000875af1925050508015612ad057506040513d601f19601f82011682018060405250810190612acd91906144a1565b60015b612b7557612adc6144db565b806308c379a003612b385750612af06144fd565b80612afb5750612b3a565b806040517f08c379a0000000000000000000000000000000000000000000000000000000008152600401612b2f9190612ef3565b60405180910390fd5b505b6040517f08c379a0000000000000000000000000000000000000000000000000000000008152600401612b6c906145ff565b60405180910390fd5b63bc197c8160e01b7bffffffffffffffffffffffffffffffffffffffffffffffffffffffff1916817bffffffffffffffffffffffffffffffffffffffffffffffffffffffff191614612bfc576040517f08c379a0000000000000000000000000000000000000000000000000000000008152600401612bf390614691565b60405180910390fd5b505b505050505050565b6000808273ffffffffffffffffffffffffffffffffffffffff163b119050919050565b6000604051905090565b600080fd5b600080fd5b600073ffffffffffffffffffffffffffffffffffffffff82169050919050565b6000612c6882612c3d565b9050919050565b612c7881612c5d565b8114612c8357600080fd5b50565b600081359050612c9581612c6f565b92915050565b6000819050919050565b612cae81612c9b565b8114612cb957600080fd5b50565b600081359050612ccb81612ca5565b92915050565b60008060408385031215612ce857612ce7612c33565b5b6000612cf685828601612c86565b9250506020612d0785828601612cbc565b9150509250929050565b612d1a81612c9b565b82525050565b6000602082019050612d356000830184612d11565b92915050565b60007fffffffff0000000000000000000000000000000000000000000000000000000082169050919050565b612d7081612d3b565b8114612d7b57600080fd5b50565b600081359050612d8d81612d67565b92915050565b600060208284031215612da957612da8612c33565b5b6000612db784828501612d7e565b91505092915050565b60008115159050919050565b612dd581612dc0565b82525050565b6000602082019050612df06000830184612dcc565b92915050565b600060ff82169050919050565b612e0c81612df6565b82525050565b6000602082019050612e276000830184612e03565b92915050565b600060208284031215612e4357612e42612c33565b5b6000612e5184828501612cbc565b91505092915050565b600081519050919050565b600082825260208201905092915050565b60005b83811015612e94578082015181840152602081019050612e79565b83811115612ea3576000848401525b50505050565b6000601f19601f8301169050919050565b6000612ec582612e5a565b612ecf8185612e65565b9350612edf818560208601612e76565b612ee881612ea9565b840191505092915050565b60006020820190508181036000830152612f0d8184612eba565b905092915050565b612f1e81612df6565b8114612f2957600080fd5b50565b600081359050612f3b81612f15565b92915050565b600060208284031215612f5757612f56612c33565b5b6000612f6584828501612f2c565b91505092915050565b600080fd5b7f4e487b7100000000000000000000000000000000000000000000000000000000600052604160045260246000fd5b612fab82612ea9565b810181811067ffffffffffffffff82111715612fca57612fc9612f73565b5b80604052505050565b6000612fdd612c29565b9050612fe98282612fa2565b919050565b600067ffffffffffffffff82111561300957613008612f73565b5b602082029050602081019050919050565b600080fd5b600061303261302d84612fee565b612fd3565b905080838252602082019050602084028301858111156130555761305461301a565b5b835b8181101561307e578061306a8882612cbc565b845260208401935050602081019050613057565b5050509392505050565b600082601f83011261309d5761309c612f6e565b5b81356130ad84826020860161301f565b91505092915050565b600080fd5b600067ffffffffffffffff8211156130d6576130d5612f73565b5b6130df82612ea9565b9050602081019050919050565b82818337600083830152505050565b600061310e613109846130bb565b612fd3565b90508281526020810184848401111561312a576131296130b6565b5b6131358482856130ec565b509392505050565b600082601f83011261315257613151612f6e565b5b81356131628482602086016130fb565b91505092915050565b600080600080600060a0868803121561318757613186612c33565b5b600061319588828901612c86565b95505060206131a688828901612c86565b945050604086013567ffffffffffffffff8111156131c7576131c6612c38565b5b6131d388828901613088565b935050606086013567ffffffffffffffff8111156131f4576131f3612c38565b5b61320088828901613088565b925050608086013567ffffffffffffffff81111561322157613220612c38565b5b61322d8882890161313d565b9150509295509295909350565b600067ffffffffffffffff82111561325557613254612f73565b5b602082029050602081019050919050565b60006132796132748461323a565b612fd3565b9050808382526020820190506020840283018581111561329c5761329b61301a565b5b835b818110156132c557806132b18882612c86565b84526020840193505060208101905061329e565b5050509392505050565b600082601f8301126132e4576132e3612f6e565b5b81356132f4848260208601613266565b91505092915050565b6000806040838503121561331457613313612c33565b5b600083013567ffffffffffffffff81111561333257613331612c38565b5b61333e858286016132cf565b925050602083013567ffffffffffffffff81111561335f5761335e612c38565b5b61336b85828601613088565b9150509250929050565b600081519050919050565b600082825260208201905092915050565b6000819050602082019050919050565b6133aa81612c9b565b82525050565b60006133bc83836133a1565b60208301905092915050565b6000602082019050919050565b60006133e082613375565b6133ea8185613380565b93506133f583613391565b8060005b8381101561342657815161340d88826133b0565b9750613418836133c8565b9250506001810190506133f9565b5085935050505092915050565b6000602082019050818103600083015261344d81846133d5565b905092915050565b6000806040838503121561346c5761346b612c33565b5b600061347a85828601612c86565b925050602061348b85828601612f2c565b9150509250929050565b6000602082840312156134ab576134aa612c33565b5b60006134b984828501612c86565b91505092915050565b6134cb81612c5d565b82525050565b60006020820190506134e660008301846134c2565b92915050565b6134f581612dc0565b811461350057600080fd5b50565b600081359050613512816134ec565b92915050565b6000806040838503121561352f5761352e612c33565b5b600061353d85828601612c86565b925050602061354e85828601613503565b9150509250929050565b6000806040838503121561356f5761356e612c33565b5b600061357d85828601612c86565b925050602061358e85828601612c86565b9150509250929050565b600080600080600060a086880312156135b4576135b3612c33565b5b60006135c288828901612c86565b95505060206135d388828901612c86565b94505060406135e488828901612cbc565b93505060606135f588828901612cbc565b925050608086013567ffffffffffffffff81111561361657613615612c38565b5b6136228882890161313d565b9150509295509295909350565b7f455243313135353a2061646472657373207a65726f206973206e6f742061207660008201527f616c6964206f776e657200000000000000000000000000000000000000000000602082015250565b600061368b602a83612e65565b91506136968261362f565b604082019050919050565b600060208201905081810360008301526136ba8161367e565b9050919050565b600081905092915050565b7f68747470733a2f2f697066732e696f2f697066732f516d597436697534526f4460008201527f56636935477547644a54757250423955635748774a373261675161787a54756d60208201527f4367422f00000000000000000000000000000000000000000000000000000000604082015250565b600061374e6044836136c1565b9150613759826136cc565b604482019050919050565b600061376f82612e5a565b61377981856136c1565b9350613789818560208601612e76565b80840191505092915050565b7f2e6a736f6e000000000000000000000000000000000000000000000000000000600082015250565b60006137cb6005836136c1565b91506137d682613795565b600582019050919050565b60006137ec82613741565b91506137f88284613764565b9150613803826137be565b915081905092915050565b7f416c7265616479204f776e73206120476f6c64204e6674000000000000000000600082015250565b6000613844601783612e65565b915061384f8261380e565b602082019050919050565b6000602082019050818103600083015261387381613837565b9050919050565b7f496e636f7272656374207061796d656e7420616d6f756e740000000000000000600082015250565b60006138b0601883612e65565b91506138bb8261387a565b602082019050919050565b600060208201905081810360008301526138df816138a3565b9050919050565b7f416c7265616479206f776e7320612073696c766572206e667400000000000000600082015250565b600061391c601983612e65565b9150613927826138e6565b602082019050919050565b6000602082019050818103600083015261394b8161390f565b9050919050565b7f496e76616c696420546f6b656e20696400000000000000000000000000000000600082015250565b6000613988601083612e65565b915061399382613952565b602082019050919050565b600060208201905081810360008301526139b78161397b565b9050919050565b7f4e6674206e6f7420666f756e64206f7220457868617573746564000000000000600082015250565b60006139f4601a83612e65565b91506139ff826139be565b602082019050919050565b60006020820190508181036000830152613a23816139e7565b9050919050565b7f4e487b7100000000000000000000000000000000000000000000000000000000600052601160045260246000fd5b6000613a6482612df6565b915060008203613a7757613a76613a2a565b5b600182039050919050565b6000819050919050565b6000613aa7613aa2613a9d84612df6565b613a82565b612c9b565b9050919050565b613ab781613a8c565b82525050565b6000604082019050613ad26000830185613aae565b613adf6020830184612d11565b9392505050565b7f455243313135353a2063616c6c6572206973206e6f7420746f6b656e206f776e60008201527f6572206f7220617070726f766564000000000000000000000000000000000000602082015250565b6000613b42602e83612e65565b9150613b4d82613ae6565b604082019050919050565b60006020820190508181036000830152613b7181613b35565b9050919050565b7f455243313135353a206163636f756e747320616e6420696473206c656e67746860008201527f206d69736d617463680000000000000000000000000000000000000000000000602082015250565b6000613bd4602983612e65565b9150613bdf82613b78565b604082019050919050565b60006020820190508181036000830152613c0381613bc7565b9050919050565b7f4e487b7100000000000000000000000000000000000000000000000000000000600052603260045260246000fd5b6000613c4482612c9b565b91507fffffffffffffffffffffffffffffffffffffffffffffffffffffffffffffffff8203613c7657613c75613a2a565b5b600182019050919050565b7f496e76616c696420746f6b656e20496400000000000000000000000000000000600082015250565b6000613cb7601083612e65565b9150613cc282613c81565b602082019050919050565b60006020820190508181036000830152613ce681613caa565b9050919050565b7f5573657220616c726561647920686f6c64732053696c766572204e6674000000600082015250565b6000613d23601d83612e65565b9150613d2e82613ced565b602082019050919050565b60006020820190508181036000830152613d5281613d16565b9050919050565b6000606082019050613d6e60008301866134c2565b613d7b6020830185613aae565b613d886040830184613aae565b949350505050565b7f5573657220616c726561647920686f6c647320476f6c64204e66740000000000600082015250565b6000613dc6601b83612e65565b9150613dd182613d90565b602082019050919050565b60006020820190508181036000830152613df581613db9565b9050919050565b7f4f776e61626c653a206e6577206f776e657220697320746865207a65726f206160008201527f6464726573730000000000000000000000000000000000000000000000000000602082015250565b6000613e58602683612e65565b9150613e6382613dfc565b604082019050919050565b60006020820190508181036000830152613e8781613e4b565b9050919050565b7f4e487b7100000000000000000000000000000000000000000000000000000000600052601260045260246000fd5b7f455243313135353a206d696e7420746f20746865207a65726f2061646472657360008201527f7300000000000000000000000000000000000000000000000000000000000000602082015250565b6000613f19602183612e65565b9150613f2482613ebd565b604082019050919050565b60006020820190508181036000830152613f4881613f0c565b9050919050565b6000613f5a82612c9b565b9150613f6583612c9b565b9250827fffffffffffffffffffffffffffffffffffffffffffffffffffffffffffffffff03821115613f9a57613f99613a2a565b5b828201905092915050565b6000604082019050613fba6000830185612d11565b613fc76020830184612d11565b9392505050565b7f455243313135353a206275726e2066726f6d20746865207a65726f206164647260008201527f6573730000000000000000000000000000000000000000000000000000000000602082015250565b600061402a602383612e65565b915061403582613fce565b604082019050919050565b600060208201905081810360008301526140598161401d565b9050919050565b7f455243313135353a206275726e20616d6f756e7420657863656564732062616c60008201527f616e636500000000000000000000000000000000000000000000000000000000602082015250565b60006140bc602483612e65565b91506140c782614060565b604082019050919050565b600060208201905081810360008301526140eb816140af565b9050919050565b7f455243313135353a2069647320616e6420616d6f756e7473206c656e6774682060008201527f6d69736d61746368000000000000000000000000000000000000000000000000602082015250565b600061414e602883612e65565b9150614159826140f2565b604082019050919050565b6000602082019050818103600083015261417d81614141565b9050919050565b7f455243313135353a207472616e7366657220746f20746865207a65726f20616460008201527f6472657373000000000000000000000000000000000000000000000000000000602082015250565b60006141e0602583612e65565b91506141eb82614184565b604082019050919050565b6000602082019050818103600083015261420f816141d3565b9050919050565b7f455243313135353a20696e73756666696369656e742062616c616e636520666f60008201527f72207472616e7366657200000000000000000000000000000000000000000000602082015250565b6000614272602a83612e65565b915061427d82614216565b604082019050919050565b600060208201905081810360008301526142a181614265565b9050919050565b600060408201905081810360008301526142c281856133d5565b905081810360208301526142d681846133d5565b90509392505050565b7f4f776e61626c653a2063616c6c6572206973206e6f7420746865206f776e6572600082015250565b6000614315602083612e65565b9150614320826142df565b602082019050919050565b6000602082019050818103600083015261434481614308565b9050919050565b7f455243313135353a2073657474696e6720617070726f76616c2073746174757360008201527f20666f722073656c660000000000000000000000000000000000000000000000602082015250565b60006143a7602983612e65565b91506143b28261434b565b604082019050919050565b600060208201905081810360008301526143d68161439a565b9050919050565b600081519050919050565b600082825260208201905092915050565b6000614404826143dd565b61440e81856143e8565b935061441e818560208601612e76565b61442781612ea9565b840191505092915050565b600060a08201905061444760008301886134c2565b61445460208301876134c2565b6144616040830186612d11565b61446e6060830185612d11565b818103608083015261448081846143f9565b90509695505050505050565b60008151905061449b81612d67565b92915050565b6000602082840312156144b7576144b6612c33565b5b60006144c58482850161448c565b91505092915050565b60008160e01c9050919050565b600060033d11156144fa5760046000803e6144f76000516144ce565b90505b90565b600060443d1061458a5761450f612c29565b60043d036004823e80513d602482011167ffffffffffffffff8211171561453757505061458a565b808201805167ffffffffffffffff811115614555575050505061458a565b80602083010160043d03850181111561457257505050505061458a565b61458182602001850186612fa2565b82955050505050505b90565b7f455243313135353a207472616e7366657220746f206e6f6e2d4552433131353560008201527f526563656976657220696d706c656d656e746572000000000000000000000000602082015250565b60006145e9603483612e65565b91506145f48261458d565b604082019050919050565b60006020820190508181036000830152614618816145dc565b9050919050565b7f455243313135353a204552433131353552656365697665722072656a6563746560008201527f6420746f6b656e73000000000000000000000000000000000000000000000000602082015250565b600061467b602883612e65565b91506146868261461f565b604082019050919050565b600060208201905081810360008301526146aa8161466e565b9050919050565b600060a0820190506146c660008301886134c2565b6146d360208301876134c2565b81810360408301526146e581866133d5565b905081810360608301526146f981856133d5565b9050818103608083015261470d81846143f9565b9050969550505050505056fea2646970667358221220e444d85e8ae66648945be3d4ba481b73489dd3501f00b59ff8b9c90207981ddd64736f6c634300080f0033",
  "linkReferences": {},
  "deployedLinkReferences": {}
}