{
  "_format": "hh-sol-artifact-1",
  "contractName": "MagiskNft",
  "sourceName": "contracts/MagicNft.sol",
  "abi": [
    {
      "inputs": [],
      "stateMutability": "nonpayable",
      "type": "constructor"
    },
    {
      "anonymous": false,
      "inputs": [
        {
          "indexed": true,
          "internalType": "address",
          "name": "account",
          "type": "address"
        },
        {
          "indexed": true,
          "internalType": "address",
          "name": "operator",
          "type": "address"
        },
        {
          "indexed": false,
          "internalType": "bool",
          "name": "approved",
          "type": "bool"
        }
      ],
      "name": "ApprovalForAll",
      "type": "event"
    },
    {
      "anonymous": false,
      "inputs": [
        {
          "indexed": false,
          "internalType": "address",
          "name": "account",
          "type": "address"
        },
        {
          "indexed": false,
          "internalType": "uint256",
          "name": "tokenId",
          "type": "uint256"
        },
        {
          "indexed": false,
          "internalType": "uint256",
          "name": "limitAvailable",
          "type": "uint256"
        }
      ],
      "name": "NFTMinted",
      "type": "event"
    },
    {
      "anonymous": false,
      "inputs": [
        {
          "indexed": true,
          "internalType": "address",
          "name": "user",
          "type": "address"
        },
        {
          "indexed": false,
          "internalType": "uint256",
          "name": "id",
          "type": "uint256"
        },
        {
          "indexed": false,
          "internalType": "uint256",
          "name": "limitAvailable",
          "type": "uint256"
        }
      ],
      "name": "NFTUsed",
      "type": "event"
    },
    {
      "anonymous": false,
      "inputs": [
        {
          "indexed": true,
          "internalType": "address",
          "name": "previousOwner",
          "type": "address"
        },
        {
          "indexed": true,
          "internalType": "address",
          "name": "newOwner",
          "type": "address"
        }
      ],
      "name": "OwnershipTransferred",
      "type": "event"
    },
    {
      "anonymous": false,
      "inputs": [
        {
          "indexed": true,
          "internalType": "address",
          "name": "operator",
          "type": "address"
        },
        {
          "indexed": true,
          "internalType": "address",
          "name": "from",
          "type": "address"
        },
        {
          "indexed": true,
          "internalType": "address",
          "name": "to",
          "type": "address"
        },
        {
          "indexed": false,
          "internalType": "uint256[]",
          "name": "ids",
          "type": "uint256[]"
        },
        {
          "indexed": false,
          "internalType": "uint256[]",
          "name": "values",
          "type": "uint256[]"
        }
      ],
      "name": "TransferBatch",
      "type": "event"
    },
    {
      "anonymous": false,
      "inputs": [
        {
          "indexed": true,
          "internalType": "address",
          "name": "operator",
          "type": "address"
        },
        {
          "indexed": true,
          "internalType": "address",
          "name": "from",
          "type": "address"
        },
        {
          "indexed": true,
          "internalType": "address",
          "name": "to",
          "type": "address"
        },
        {
          "indexed": false,
          "internalType": "uint256",
          "name": "id",
          "type": "uint256"
        },
        {
          "indexed": false,
          "internalType": "uint256",
          "name": "value",
          "type": "uint256"
        }
      ],
      "name": "TransferSingle",
      "type": "event"
    },
    {
      "anonymous": false,
      "inputs": [
        {
          "indexed": false,
          "internalType": "string",
          "name": "value",
          "type": "string"
        },
        {
          "indexed": true,
          "internalType": "uint256",
          "name": "id",
          "type": "uint256"
        }
      ],
      "name": "URI",
      "type": "event"
    },
    {
      "inputs": [],
      "name": "GOLD_NFT_ID",
      "outputs": [
        {
          "internalType": "uint8",
          "name": "",
          "type": "uint8"
        }
      ],
      "stateMutability": "view",
      "type": "function"
    },
    {
      "inputs": [],
      "name": "GOLD_NFT_PRICE",
      "outputs": [
        {
          "internalType": "uint256",
          "name": "",
          "type": "uint256"
        }
      ],
      "stateMutability": "view",
      "type": "function"
    },
    {
      "inputs": [],
      "name": "GOLD_USE_LIMIT",
      "outputs": [
        {
          "internalType": "uint8",
          "name": "",
          "type": "uint8"
        }
      ],
      "stateMutability": "view",
      "type": "function"
    },
    {
      "inputs": [],
      "name": "NAME",
      "outputs": [
        {
          "internalType": "string",
          "name": "",
          "type": "string"
        }
      ],
      "stateMutability": "view",
      "type": "function"
    },
    {
      "inputs": [],
      "name": "SILVER_NFT_ID",
      "outputs": [
        {
          "internalType": "uint8",
          "name": "",
          "type": "uint8"
        }
      ],
      "stateMutability": "view",
      "type": "function"
    },
    {
      "inputs": [],
      "name": "SILVER_NFT_PRICE",
      "outputs": [
        {
          "internalType": "uint256",
          "name": "",
          "type": "uint256"
        }
      ],
      "stateMutability": "view",
      "type": "function"
    },
    {
      "inputs": [],
      "name": "SILVER_USE_LIMIT",
      "outputs": [
        {
          "internalType": "uint8",
          "name": "",
          "type": "uint8"
        }
      ],
      "stateMutability": "view",
      "type": "function"
    },
    {
      "inputs": [],
      "name": "SYMBOL",
      "outputs": [
        {
          "internalType": "string",
          "name": "",
          "type": "string"
        }
      ],
      "stateMutability": "view",
      "type": "function"
    },
    {
      "inputs": [
        {
          "internalType": "address",
          "name": "account",
          "type": "address"
        },
        {
          "internalType": "uint256",
          "name": "id",
          "type": "uint256"
        }
      ],
      "name": "balanceOf",
      "outputs": [
        {
          "internalType": "uint256",
          "name": "",
          "type": "uint256"
        }
      ],
      "stateMutability": "view",
      "type": "function"
    },
    {
      "inputs": [
        {
          "internalType": "address[]",
          "name": "accounts",
          "type": "address[]"
        },
        {
          "internalType": "uint256[]",
          "name": "ids",
          "type": "uint256[]"
        }
      ],
      "name": "balanceOfBatch",
      "outputs": [
        {
          "internalType": "uint256[]",
          "name": "",
          "type": "uint256[]"
        }
      ],
      "stateMutability": "view",
      "type": "function"
    },
    {
      "inputs": [],
      "name": "cooldown",
      "outputs": [
        {
          "internalType": "uint32",
          "name": "",
          "type": "uint32"
        }
      ],
      "stateMutability": "view",
      "type": "function"
    },
    {
      "inputs": [
        {
          "internalType": "address",
          "name": "account",
          "type": "address"
        },
        {
          "internalType": "uint8",
          "name": "tokenId",
          "type": "uint8"
        }
      ],
      "name": "dropTo",
      "outputs": [],
      "stateMutability": "nonpayable",
      "type": "function"
    },
    {
      "inputs": [
        {
          "internalType": "address",
          "name": "user",
          "type": "address"
        },
        {
          "internalType": "uint8",
          "name": "tokenId",
          "type": "uint8"
        }
      ],
      "name": "getUserNFTLimit",
      "outputs": [
        {
          "internalType": "uint8",
          "name": "",
          "type": "uint8"
        }
      ],
      "stateMutability": "view",
      "type": "function"
    },
    {
      "inputs": [
        {
          "internalType": "address",
          "name": "",
          "type": "address"
        }
      ],
      "name": "hasGoldNft",
      "outputs": [
        {
          "internalType": "bool",
          "name": "",
          "type": "bool"
        }
      ],
      "stateMutability": "view",
      "type": "function"
    },
    {
      "inputs": [
        {
          "internalType": "address",
          "name": "",
          "type": "address"
        }
      ],
      "name": "hasSilverNft",
      "outputs": [
        {
          "internalType": "bool",
          "name": "",
          "type": "bool"
        }
      ],
      "stateMutability": "view",
      "type": "function"
    },
    {
      "inputs": [
        {
          "internalType": "address",
          "name": "account",
          "type": "address"
        },
        {
          "internalType": "address",
          "name": "operator",
          "type": "address"
        }
      ],
      "name": "isApprovedForAll",
      "outputs": [
        {
          "internalType": "bool",
          "name": "",
          "type": "bool"
        }
      ],
      "stateMutability": "view",
      "type": "function"
    },
    {
      "inputs": [],
      "name": "isCooldown",
      "outputs": [
        {
          "internalType": "bool",
          "name": "",
          "type": "bool"
        }
      ],
      "stateMutability": "view",
      "type": "function"
    },
    {
      "inputs": [
        {
          "internalType": "address",
          "name": "",
          "type": "address"
        }
      ],
      "name": "lastInteraction",
      "outputs": [
        {
          "internalType": "uint32",
          "name": "",
          "type": "uint32"
        }
      ],
      "stateMutability": "view",
      "type": "function"
    },
    {
      "inputs": [
        {
          "internalType": "uint8",
          "name": "tokenId",
          "type": "uint8"
        }
      ],
      "name": "mintNft",
      "outputs": [],
      "stateMutability": "payable",
      "type": "function"
    },
    {
      "inputs": [],
      "name": "owner",
      "outputs": [
        {
          "internalType": "address",
          "name": "",
          "type": "address"
        }
      ],
      "stateMutability": "view",
      "type": "function"
    },
    {
      "inputs": [
        {
          "internalType": "uint8",
          "name": "tokenId",
          "type": "uint8"
        }
      ],
      "name": "refill",
      "outputs": [],
      "stateMutability": "payable",
      "type": "function"
    },
    {
      "inputs": [],
      "name": "renounceOwnership",
      "outputs": [],
      "stateMutability": "nonpayable",
      "type": "function"
    },
    {
      "inputs": [
        {
          "internalType": "address",
          "name": "from",
          "type": "address"
        },
        {
          "internalType": "address",
          "name": "to",
          "type": "address"
        },
        {
          "internalType": "uint256[]",
          "name": "ids",
          "type": "uint256[]"
        },
        {
          "internalType": "uint256[]",
          "name": "amounts",
          "type": "uint256[]"
        },
        {
          "internalType": "bytes",
          "name": "data",
          "type": "bytes"
        }
      ],
      "name": "safeBatchTransferFrom",
      "outputs": [],
      "stateMutability": "nonpayable",
      "type": "function"
    },
    {
      "inputs": [
        {
          "internalType": "address",
          "name": "from",
          "type": "address"
        },
        {
          "internalType": "address",
          "name": "to",
          "type": "address"
        },
        {
          "internalType": "uint256",
          "name": "id",
          "type": "uint256"
        },
        {
          "internalType": "uint256",
          "name": "amount",
          "type": "uint256"
        },
        {
          "internalType": "bytes",
          "name": "data",
          "type": "bytes"
        }
      ],
      "name": "safeTransferFrom",
      "outputs": [],
      "stateMutability": "nonpayable",
      "type": "function"
    },
    {
      "inputs": [
        {
          "internalType": "address",
          "name": "operator",
          "type": "address"
        },
        {
          "internalType": "bool",
          "name": "approved",
          "type": "bool"
        }
      ],
      "name": "setApprovalForAll",
      "outputs": [],
      "stateMutability": "nonpayable",
      "type": "function"
    },
    {
      "inputs": [
        {
          "internalType": "bytes4",
          "name": "interfaceId",
          "type": "bytes4"
        }
      ],
      "name": "supportsInterface",
      "outputs": [
        {
          "internalType": "bool",
          "name": "",
          "type": "bool"
        }
      ],
      "stateMutability": "view",
      "type": "function"
    },
    {
      "inputs": [
        {
          "internalType": "bool",
          "name": "_value",
          "type": "bool"
        }
      ],
      "name": "toggleCooldown",
      "outputs": [],
      "stateMutability": "nonpayable",
      "type": "function"
    },
    {
      "inputs": [
        {
          "internalType": "address",
          "name": "newOwner",
          "type": "address"
        }
      ],
      "name": "transferOwnership",
      "outputs": [],
      "stateMutability": "nonpayable",
      "type": "function"
    },
    {
      "inputs": [
        {
          "internalType": "uint256",
          "name": "tokenId",
          "type": "uint256"
        }
      ],
      "name": "uri",
      "outputs": [
        {
          "internalType": "string",
          "name": "",
          "type": "string"
        }
      ],
      "stateMutability": "pure",
      "type": "function"
    },
    {
      "inputs": [
        {
          "internalType": "uint8",
          "name": "tokenId",
          "type": "uint8"
        }
      ],
      "name": "useNFT",
      "outputs": [],
      "stateMutability": "nonpayable",
      "type": "function"
    },
    {
      "inputs": [],
      "name": "withdraw",
      "outputs": [],
      "stateMutability": "nonpayable",
      "type": "function"
    }
  ],
  "bytecode": "0x60806040523480156200001157600080fd5b506040518060200160405280600081525062000033816200005a60201b60201c565b5062000054620000486200006f60201b60201c565b6200007760201b60201c565b6200049e565b80600290816200006b9190620003b7565b5050565b600033905090565b6000600360009054906101000a900473ffffffffffffffffffffffffffffffffffffffff16905081600360006101000a81548173ffffffffffffffffffffffffffffffffffffffff021916908373ffffffffffffffffffffffffffffffffffffffff1602179055508173ffffffffffffffffffffffffffffffffffffffff168173ffffffffffffffffffffffffffffffffffffffff167f8be0079c531659141344cd1fd0a4f28419497f9722a3daafe3b4186f6b6457e060405160405180910390a35050565b600081519050919050565b7f4e487b7100000000000000000000000000000000000000000000000000000000600052604160045260246000fd5b7f4e487b7100000000000000000000000000000000000000000000000000000000600052602260045260246000fd5b60006002820490506001821680620001bf57607f821691505b602082108103620001d557620001d462000177565b5b50919050565b60008190508160005260206000209050919050565b60006020601f8301049050919050565b600082821b905092915050565b6000600883026200023f7fffffffffffffffffffffffffffffffffffffffffffffffffffffffffffffffff8262000200565b6200024b868362000200565b95508019841693508086168417925050509392505050565b6000819050919050565b6000819050919050565b600062000298620002926200028c8462000263565b6200026d565b62000263565b9050919050565b6000819050919050565b620002b48362000277565b620002cc620002c3826200029f565b8484546200020d565b825550505050565b600090565b620002e3620002d4565b620002f0818484620002a9565b505050565b5b8181101562000318576200030c600082620002d9565b600181019050620002f6565b5050565b601f82111562000367576200033181620001db565b6200033c84620001f0565b810160208510156200034c578190505b620003646200035b85620001f0565b830182620002f5565b50505b505050565b600082821c905092915050565b60006200038c600019846008026200036c565b1980831691505092915050565b6000620003a7838362000379565b9150826002028217905092915050565b620003c2826200013d565b67ffffffffffffffff811115620003de57620003dd62000148565b5b620003ea8254620001a6565b620003f78282856200031c565b600060209050601f8311600181146200042f57600084156200041a578287015190505b62000426858262000399565b86555062000496565b601f1984166200043f86620001db565b60005b82811015620004695784890151825560018201915060208501945060208101905062000442565b8683101562000489578489015162000485601f89168262000379565b8355505b6001600288020188555050505b505050505050565b614dea80620004ae6000396000f3fe6080604052600436106101d75760003560e01c806377a1bf4311610102578063a3f4df7e11610095578063ee882fb511610064578063ee882fb5146106b7578063f242432a146106e2578063f2fde38b1461070b578063f76f8d7814610734576101d7565b8063a3f4df7e14610608578063e796933e14610633578063e985e9c51461065e578063eb077c481461069b576101d7565b80638f83936a116100d15780638f83936a1461054e578063927cd9c114610579578063a1e9d565146105b6578063a22cb465146105df576101d7565b806377a1bf43146104a2578063787a08a6146104cd57806379029bf3146104f85780638da5cb5b14610523576101d7565b80632eb2c2d61161017a5780635c85b9fd116101495780635c85b9fd146103e65780635f01e798146104115780635ff9dcbd1461044e578063715018a61461048b576101d7565b80632eb2c2d61461032c5780633ccfd60b146103555780634e1273f41461036c578063521d122c146103a9576101d7565b806309f36011116101b657806309f36011146102815780630e89341c146102aa578063235bfcba146102e75780632a194f2414610303576101d7565b8062fdd58e146101dc57806301ffc9a714610219578063079f0b6814610256575b600080fd5b3480156101e857600080fd5b5061020360048036038101906101fe919061318d565b61075f565b60405161021091906131dc565b60405180910390f35b34801561022557600080fd5b50610240600480360381019061023b919061324f565b610827565b60405161024d9190613297565b60405180910390f35b34801561026257600080fd5b5061026b610909565b60405161027891906132ce565b60405180910390f35b34801561028d57600080fd5b506102a860048036038101906102a39190613315565b61090e565b005b3480156102b657600080fd5b506102d160048036038101906102cc9190613342565b610933565b6040516102de9190613408565b60405180910390f35b61030160048036038101906102fc9190613456565b610964565b005b34801561030f57600080fd5b5061032a60048036038101906103259190613456565b610daa565b005b34801561033857600080fd5b50610353600480360381019061034e9190613680565b6111a1565b005b34801561036157600080fd5b5061036a611242565b005b34801561037857600080fd5b50610393600480360381019061038e9190613812565b6112f9565b6040516103a09190613948565b60405180910390f35b3480156103b557600080fd5b506103d060048036038101906103cb919061396a565b611412565b6040516103dd91906132ce565b60405180910390f35b3480156103f257600080fd5b506103fb611480565b60405161040891906132ce565b60405180910390f35b34801561041d57600080fd5b50610438600480360381019061043391906139aa565b611485565b6040516104459190613297565b60405180910390f35b34801561045a57600080fd5b50610475600480360381019061047091906139aa565b6114a5565b60405161048291906139f6565b60405180910390f35b34801561049757600080fd5b506104a06114c8565b005b3480156104ae57600080fd5b506104b76114dc565b6040516104c491906132ce565b60405180910390f35b3480156104d957600080fd5b506104e26114e1565b6040516104ef91906139f6565b60405180910390f35b34801561050457600080fd5b5061050d6114e8565b60405161051a91906131dc565b60405180910390f35b34801561052f57600080fd5b506105386114f4565b6040516105459190613a20565b60405180910390f35b34801561055a57600080fd5b5061056361151e565b60405161057091906131dc565b60405180910390f35b34801561058557600080fd5b506105a0600480360381019061059b91906139aa565b61152a565b6040516105ad9190613297565b60405180910390f35b3480156105c257600080fd5b506105dd60048036038101906105d8919061396a565b61154a565b005b3480156105eb57600080fd5b5061060660048036038101906106019190613a3b565b61191b565b005b34801561061457600080fd5b5061061d611931565b60405161062a9190613408565b60405180910390f35b34801561063f57600080fd5b5061064861196a565b60405161065591906132ce565b60405180910390f35b34801561066a57600080fd5b5061068560048036038101906106809190613a7b565b61196f565b6040516106929190613297565b60405180910390f35b6106b560048036038101906106b09190613456565b611a03565b005b3480156106c357600080fd5b506106cc611e6b565b6040516106d99190613297565b60405180910390f35b3480156106ee57600080fd5b5061070960048036038101906107049190613abb565b611e7e565b005b34801561071757600080fd5b50610732600480360381019061072d91906139aa565b611f1f565b005b34801561074057600080fd5b50610749611fa2565b6040516107569190613408565b60405180910390f35b60008073ffffffffffffffffffffffffffffffffffffffff168373ffffffffffffffffffffffffffffffffffffffff16036107cf576040517f08c379a00000000000000000000000000000000000000000000000000000000081526004016107c690613bc4565b60405180910390fd5b60008083815260200190815260200160002060008473ffffffffffffffffffffffffffffffffffffffff1673ffffffffffffffffffffffffffffffffffffffff16815260200190815260200160002054905092915050565b60007fd9b67a26000000000000000000000000000000000000000000000000000000007bffffffffffffffffffffffffffffffffffffffffffffffffffffffff1916827bffffffffffffffffffffffffffffffffffffffffffffffffffffffff191614806108f257507f0e89341c000000000000000000000000000000000000000000000000000000007bffffffffffffffffffffffffffffffffffffffffffffffffffffffff1916827bffffffffffffffffffffffffffffffffffffffffffffffffffffffff1916145b80610902575061090182611fdb565b5b9050919050565b600181565b610916612045565b80600360146101000a81548160ff02191690831515021790555050565b606061093e826120c3565b60405160200161094e9190613d04565b6040516020818303038152906040529050919050565b60008160ff161480610979575060018160ff16145b6109b8576040517f08c379a00000000000000000000000000000000000000000000000000000000081526004016109af90613d7d565b60405180910390fd5b60008160ff1603610bb757600560003373ffffffffffffffffffffffffffffffffffffffff1673ffffffffffffffffffffffffffffffffffffffff16815260200190815260200160002060009054906101000a900460ff16610a4f576040517f08c379a0000000000000000000000000000000000000000000000000000000008152600401610a4690613de9565b60405180910390fd5b6000600460003373ffffffffffffffffffffffffffffffffffffffff1673ffffffffffffffffffffffffffffffffffffffff16815260200190815260200160002060008360ff1660ff16815260200190815260200160002060009054906101000a900460ff1660ff1614610af8576040517f08c379a0000000000000000000000000000000000000000000000000000000008152600401610aef90613e55565b60405180910390fd5b6706f05b59d3b200003414610b42576040517f08c379a0000000000000000000000000000000000000000000000000000000008152600401610b3990613ec1565b60405180910390fd5b6005600460003373ffffffffffffffffffffffffffffffffffffffff1673ffffffffffffffffffffffffffffffffffffffff16815260200190815260200160002060008360ff1660ff16815260200190815260200160002060006101000a81548160ff021916908360ff160217905550610da7565b600660003373ffffffffffffffffffffffffffffffffffffffff1673ffffffffffffffffffffffffffffffffffffffff16815260200190815260200160002060009054906101000a900460ff16610c43576040517f08c379a0000000000000000000000000000000000000000000000000000000008152600401610c3a90613de9565b60405180910390fd5b6000600460003373ffffffffffffffffffffffffffffffffffffffff1673ffffffffffffffffffffffffffffffffffffffff16815260200190815260200160002060008360ff1660ff16815260200190815260200160002060009054906101000a900460ff1660ff1614610cec576040517f08c379a0000000000000000000000000000000000000000000000000000000008152600401610ce390613e55565b60405180910390fd5b670b1a2bc2ec5000003414610d36576040517f08c379a0000000000000000000000000000000000000000000000000000000008152600401610d2d90613ec1565b60405180910390fd5b600a600460003373ffffffffffffffffffffffffffffffffffffffff1673ffffffffffffffffffffffffffffffffffffffff16815260200190815260200160002060008360ff1660ff16815260200190815260200160002060006101000a81548160ff021916908360ff1602179055505b50565b600360149054906101000a900460ff1615610e665762015180600760003373ffffffffffffffffffffffffffffffffffffffff1673ffffffffffffffffffffffffffffffffffffffff16815260200190815260200160002060009054906101000a900463ffffffff16610e1d9190613f10565b63ffffffff16421015610e65576040517f08c379a0000000000000000000000000000000000000000000000000000000008152600401610e5c90613f96565b60405180910390fd5b5b60008160ff161480610e7b575060018160ff16145b610eba576040517f08c379a0000000000000000000000000000000000000000000000000000000008152600401610eb190614002565b60405180910390fd5b6000600460003373ffffffffffffffffffffffffffffffffffffffff1673ffffffffffffffffffffffffffffffffffffffff16815260200190815260200160002060008360ff1660ff16815260200190815260200160002060009054906101000a900460ff1660ff1611610f63576040517f08c379a0000000000000000000000000000000000000000000000000000000008152600401610f5a9061406e565b60405180910390fd5b600081905060008160ff160361105b576000600460003373ffffffffffffffffffffffffffffffffffffffff1673ffffffffffffffffffffffffffffffffffffffff16815260200190815260200160002060008360ff1660ff168152602001908152602001600020600081819054906101000a900460ff1680929190610fe89061408e565b91906101000a81548160ff021916908360ff16021790555060ff1690503373ffffffffffffffffffffffffffffffffffffffff167f82f87ac690e2fc8b4ee2c1c09d862a683849b5e3017d7dc932cba25f355d0cbe838360405161104d9291906140f2565b60405180910390a25061113f565b6000600460003373ffffffffffffffffffffffffffffffffffffffff1673ffffffffffffffffffffffffffffffffffffffff16815260200190815260200160002060008360ff1660ff168152602001908152602001600020600081819054906101000a900460ff16809291906110d09061408e565b91906101000a81548160ff021916908360ff16021790555060ff1690503373ffffffffffffffffffffffffffffffffffffffff167f82f87ac690e2fc8b4ee2c1c09d862a683849b5e3017d7dc932cba25f355d0cbe83836040516111359291906140f2565b60405180910390a2505b5042600760003373ffffffffffffffffffffffffffffffffffffffff1673ffffffffffffffffffffffffffffffffffffffff16815260200190815260200160002060006101000a81548163ffffffff021916908363ffffffff16021790555050565b6111a9612191565b73ffffffffffffffffffffffffffffffffffffffff168573ffffffffffffffffffffffffffffffffffffffff1614806111ef57506111ee856111e9612191565b61196f565b5b61122e576040517f08c379a00000000000000000000000000000000000000000000000000000000081526004016112259061418d565b60405180910390fd5b61123b8585858585612199565b5050505050565b61124a612045565b60003373ffffffffffffffffffffffffffffffffffffffff1647604051611270906141de565b60006040518083038185875af1925050503d80600081146112ad576040519150601f19603f3d011682016040523d82523d6000602084013e6112b2565b606091505b50509050806112f6576040517f08c379a00000000000000000000000000000000000000000000000000000000081526004016112ed9061423f565b60405180910390fd5b50565b6060815183511461133f576040517f08c379a0000000000000000000000000000000000000000000000000000000008152600401611336906142d1565b60405180910390fd5b6000835167ffffffffffffffff81111561135c5761135b613488565b5b60405190808252806020026020018201604052801561138a5781602001602082028036833780820191505090505b50905060005b8451811015611407576113d78582815181106113af576113ae6142f1565b5b60200260200101518583815181106113ca576113c96142f1565b5b602002602001015161075f565b8282815181106113ea576113e96142f1565b5b6020026020010181815250508061140090614320565b9050611390565b508091505092915050565b6000600460008473ffffffffffffffffffffffffffffffffffffffff1673ffffffffffffffffffffffffffffffffffffffff16815260200190815260200160002060008360ff1660ff16815260200190815260200160002060009054906101000a900460ff16905092915050565b600581565b60066020528060005260406000206000915054906101000a900460ff1681565b60076020528060005260406000206000915054906101000a900463ffffffff1681565b6114d0612045565b6114da60006124ba565b565b600a81565b6201518081565b6706f05b59d3b2000081565b6000600360009054906101000a900473ffffffffffffffffffffffffffffffffffffffff16905090565b670b1a2bc2ec50000081565b60056020528060005260406000206000915054906101000a900460ff1681565b611552612045565b60008160ff161480611567575060018160ff16145b6115a6576040517f08c379a000000000000000000000000000000000000000000000000000000000815260040161159d906143b4565b60405180910390fd5b60008160ff160361176657600560008373ffffffffffffffffffffffffffffffffffffffff1673ffffffffffffffffffffffffffffffffffffffff16815260200190815260200160002060009054906101000a900460ff161561163e576040517f08c379a000000000000000000000000000000000000000000000000000000000815260040161163590614420565b60405180910390fd5b6001600560008473ffffffffffffffffffffffffffffffffffffffff1673ffffffffffffffffffffffffffffffffffffffff16815260200190815260200160002060006101000a81548160ff0219169083151502179055506005600460008473ffffffffffffffffffffffffffffffffffffffff1673ffffffffffffffffffffffffffffffffffffffff16815260200190815260200160002060008360ff1660ff16815260200190815260200160002060006101000a81548160ff021916908360ff160217905550611725828260ff16600160405180602001604052806000815250612580565b7f3a8a89b59a31c39a36febecb987e0657ab7b7c73b60ebacb44dcb9886c2d5c8a8282600560405161175993929190614440565b60405180910390a1611917565b600660008373ffffffffffffffffffffffffffffffffffffffff1673ffffffffffffffffffffffffffffffffffffffff16815260200190815260200160002060009054906101000a900460ff16156117f3576040517f08c379a00000000000000000000000000000000000000000000000000000000081526004016117ea906144c3565b60405180910390fd5b6001600660008473ffffffffffffffffffffffffffffffffffffffff1673ffffffffffffffffffffffffffffffffffffffff16815260200190815260200160002060006101000a81548160ff021916908315150217905550600a600460008473ffffffffffffffffffffffffffffffffffffffff1673ffffffffffffffffffffffffffffffffffffffff16815260200190815260200160002060008360ff1660ff16815260200190815260200160002060006101000a81548160ff021916908360ff1602179055506118da828260ff16600160405180602001604052806000815250612580565b7f3a8a89b59a31c39a36febecb987e0657ab7b7c73b60ebacb44dcb9886c2d5c8a8282600a60405161190e93929190614440565b60405180910390a15b5050565b61192d611926612191565b8383612730565b5050565b6040518060400160405280600a81526020017f4d616769736b204e66740000000000000000000000000000000000000000000081525081565b600081565b6000600160008473ffffffffffffffffffffffffffffffffffffffff1673ffffffffffffffffffffffffffffffffffffffff16815260200190815260200160002060008373ffffffffffffffffffffffffffffffffffffffff1673ffffffffffffffffffffffffffffffffffffffff16815260200190815260200160002060009054906101000a900460ff16905092915050565b60008160ff161480611a18575060018160ff16145b611a57576040517f08c379a0000000000000000000000000000000000000000000000000000000008152600401611a4e90613d7d565b60405180910390fd5b60008160ff1603611c5f57600560003373ffffffffffffffffffffffffffffffffffffffff1673ffffffffffffffffffffffffffffffffffffffff16815260200190815260200160002060009054906101000a900460ff1615611aef576040517f08c379a0000000000000000000000000000000000000000000000000000000008152600401611ae69061452f565b60405180910390fd5b6706f05b59d3b20000341015611b3a576040517f08c379a0000000000000000000000000000000000000000000000000000000008152600401611b319061459b565b60405180910390fd5b6001600560003373ffffffffffffffffffffffffffffffffffffffff1673ffffffffffffffffffffffffffffffffffffffff16815260200190815260200160002060006101000a81548160ff0219169083151502179055506005600460003373ffffffffffffffffffffffffffffffffffffffff1673ffffffffffffffffffffffffffffffffffffffff16815260200190815260200160002060008060ff1660ff16815260200190815260200160002060006101000a81548160ff021916908360ff160217905550611c2233600060ff16600160405180602001604052806000815250612580565b7f3a8a89b59a31c39a36febecb987e0657ab7b7c73b60ebacb44dcb9886c2d5c8a33826005604051611c5693929190614440565b60405180910390a15b60018160ff1603611e6857600660003373ffffffffffffffffffffffffffffffffffffffff1673ffffffffffffffffffffffffffffffffffffffff16815260200190815260200160002060009054906101000a900460ff1615611cf7576040517f08c379a0000000000000000000000000000000000000000000000000000000008152600401611cee9061452f565b60405180910390fd5b670b1a2bc2ec500000341015611d42576040517f08c379a0000000000000000000000000000000000000000000000000000000008152600401611d399061459b565b60405180910390fd5b6001600660003373ffffffffffffffffffffffffffffffffffffffff1673ffffffffffffffffffffffffffffffffffffffff16815260200190815260200160002060006101000a81548160ff021916908315150217905550600a600460003373ffffffffffffffffffffffffffffffffffffffff1673ffffffffffffffffffffffffffffffffffffffff1681526020019081526020016000206000600160ff1660ff16815260200190815260200160002060006101000a81548160ff021916908360ff160217905550611e2b33600160ff16600160405180602001604052806000815250612580565b7f3a8a89b59a31c39a36febecb987e0657ab7b7c73b60ebacb44dcb9886c2d5c8a3382600a604051611e5f93929190614440565b60405180910390a15b50565b600360149054906101000a900460ff1681565b611e86612191565b73ffffffffffffffffffffffffffffffffffffffff168573ffffffffffffffffffffffffffffffffffffffff161480611ecc5750611ecb85611ec6612191565b61196f565b5b611f0b576040517f08c379a0000000000000000000000000000000000000000000000000000000008152600401611f029061418d565b60405180910390fd5b611f18858585858561289c565b5050505050565b611f27612045565b600073ffffffffffffffffffffffffffffffffffffffff168173ffffffffffffffffffffffffffffffffffffffff1603611f96576040517f08c379a0000000000000000000000000000000000000000000000000000000008152600401611f8d9061462d565b60405180910390fd5b611f9f816124ba565b50565b6040518060400160405280600681526020017f4d414749534b000000000000000000000000000000000000000000000000000081525081565b60007f01ffc9a7000000000000000000000000000000000000000000000000000000007bffffffffffffffffffffffffffffffffffffffffffffffffffffffff1916827bffffffffffffffffffffffffffffffffffffffffffffffffffffffff1916149050919050565b61204d612191565b73ffffffffffffffffffffffffffffffffffffffff1661206b6114f4565b73ffffffffffffffffffffffffffffffffffffffff16146120c1576040517f08c379a00000000000000000000000000000000000000000000000000000000081526004016120b890614699565b60405180910390fd5b565b6060600060016120d284612b37565b01905060008167ffffffffffffffff8111156120f1576120f0613488565b5b6040519080825280601f01601f1916602001820160405280156121235781602001600182028036833780820191505090505b509050600082602001820190505b600115612186578080600190039150507f3031323334353637383961626364656600000000000000000000000000000000600a86061a8153600a858161217a576121796146b9565b5b04945060008503612131575b819350505050919050565b600033905090565b81518351146121dd576040517f08c379a00000000000000000000000000000000000000000000000000000000081526004016121d49061475a565b60405180910390fd5b600073ffffffffffffffffffffffffffffffffffffffff168473ffffffffffffffffffffffffffffffffffffffff160361224c576040517f08c379a0000000000000000000000000000000000000000000000000000000008152600401612243906147ec565b60405180910390fd5b6000612256612191565b9050612266818787878787612c8a565b60005b8451811015612417576000858281518110612287576122866142f1565b5b6020026020010151905060008583815181106122a6576122a56142f1565b5b60200260200101519050600080600084815260200190815260200160002060008b73ffffffffffffffffffffffffffffffffffffffff1673ffffffffffffffffffffffffffffffffffffffff16815260200190815260200160002054905081811015612347576040517f08c379a000000000000000000000000000000000000000000000000000000000815260040161233e9061487e565b60405180910390fd5b81810360008085815260200190815260200160002060008c73ffffffffffffffffffffffffffffffffffffffff1673ffffffffffffffffffffffffffffffffffffffff168152602001908152602001600020819055508160008085815260200190815260200160002060008b73ffffffffffffffffffffffffffffffffffffffff1673ffffffffffffffffffffffffffffffffffffffff16815260200190815260200160002060008282546123fc919061489e565b925050819055505050508061241090614320565b9050612269565b508473ffffffffffffffffffffffffffffffffffffffff168673ffffffffffffffffffffffffffffffffffffffff168273ffffffffffffffffffffffffffffffffffffffff167f4a39dc06d4c0dbc64b70af90fd698a233a518aa5d07e595d983b8c0526c8f7fb878760405161248e9291906148f4565b60405180910390a46124a4818787878787612c92565b6124b2818787878787612c9a565b505050505050565b6000600360009054906101000a900473ffffffffffffffffffffffffffffffffffffffff16905081600360006101000a81548173ffffffffffffffffffffffffffffffffffffffff021916908373ffffffffffffffffffffffffffffffffffffffff1602179055508173ffffffffffffffffffffffffffffffffffffffff168173ffffffffffffffffffffffffffffffffffffffff167f8be0079c531659141344cd1fd0a4f28419497f9722a3daafe3b4186f6b6457e060405160405180910390a35050565b600073ffffffffffffffffffffffffffffffffffffffff168473ffffffffffffffffffffffffffffffffffffffff16036125ef576040517f08c379a00000000000000000000000000000000000000000000000000000000081526004016125e69061499d565b60405180910390fd5b60006125f9612191565b9050600061260685612e71565b9050600061261385612e71565b905061262483600089858589612c8a565b8460008088815260200190815260200160002060008973ffffffffffffffffffffffffffffffffffffffff1673ffffffffffffffffffffffffffffffffffffffff1681526020019081526020016000206000828254612683919061489e565b925050819055508673ffffffffffffffffffffffffffffffffffffffff16600073ffffffffffffffffffffffffffffffffffffffff168473ffffffffffffffffffffffffffffffffffffffff167fc3d58168c5ae7397731d063d5bbf3d657854427343f4c083240f7aacaa2d0f6289896040516127019291906149bd565b60405180910390a461271883600089858589612c92565b61272783600089898989612eeb565b50505050505050565b8173ffffffffffffffffffffffffffffffffffffffff168373ffffffffffffffffffffffffffffffffffffffff160361279e576040517f08c379a000000000000000000000000000000000000000000000000000000000815260040161279590614a58565b60405180910390fd5b80600160008573ffffffffffffffffffffffffffffffffffffffff1673ffffffffffffffffffffffffffffffffffffffff16815260200190815260200160002060008473ffffffffffffffffffffffffffffffffffffffff1673ffffffffffffffffffffffffffffffffffffffff16815260200190815260200160002060006101000a81548160ff0219169083151502179055508173ffffffffffffffffffffffffffffffffffffffff168373ffffffffffffffffffffffffffffffffffffffff167f17307eab39ab6107e8899845ad3d59bd9653f200f220920489ca2b5937696c318360405161288f9190613297565b60405180910390a3505050565b600073ffffffffffffffffffffffffffffffffffffffff168473ffffffffffffffffffffffffffffffffffffffff160361290b576040517f08c379a0000000000000000000000000000000000000000000000000000000008152600401612902906147ec565b60405180910390fd5b6000612915612191565b9050600061292285612e71565b9050600061292f85612e71565b905061293f838989858589612c8a565b600080600088815260200190815260200160002060008a73ffffffffffffffffffffffffffffffffffffffff1673ffffffffffffffffffffffffffffffffffffffff168152602001908152602001600020549050858110156129d6576040517f08c379a00000000000000000000000000000000000000000000000000000000081526004016129cd9061487e565b60405180910390fd5b85810360008089815260200190815260200160002060008b73ffffffffffffffffffffffffffffffffffffffff1673ffffffffffffffffffffffffffffffffffffffff168152602001908152602001600020819055508560008089815260200190815260200160002060008a73ffffffffffffffffffffffffffffffffffffffff1673ffffffffffffffffffffffffffffffffffffffff1681526020019081526020016000206000828254612a8b919061489e565b925050819055508773ffffffffffffffffffffffffffffffffffffffff168973ffffffffffffffffffffffffffffffffffffffff168573ffffffffffffffffffffffffffffffffffffffff167fc3d58168c5ae7397731d063d5bbf3d657854427343f4c083240f7aacaa2d0f628a8a604051612b089291906149bd565b60405180910390a4612b1e848a8a86868a612c92565b612b2c848a8a8a8a8a612eeb565b505050505050505050565b600080600090507a184f03e93ff9f4daa797ed6e38ed64bf6a1f0100000000000000008310612b95577a184f03e93ff9f4daa797ed6e38ed64bf6a1f0100000000000000008381612b8b57612b8a6146b9565b5b0492506040810190505b6d04ee2d6d415b85acef81000000008310612bd2576d04ee2d6d415b85acef81000000008381612bc857612bc76146b9565b5b0492506020810190505b662386f26fc100008310612c0157662386f26fc100008381612bf757612bf66146b9565b5b0492506010810190505b6305f5e1008310612c2a576305f5e1008381612c2057612c1f6146b9565b5b0492506008810190505b6127108310612c4f576127108381612c4557612c446146b9565b5b0492506004810190505b60648310612c725760648381612c6857612c676146b9565b5b0492506002810190505b600a8310612c81576001810190505b80915050919050565b505050505050565b505050505050565b612cb98473ffffffffffffffffffffffffffffffffffffffff166130c2565b15612e69578373ffffffffffffffffffffffffffffffffffffffff1663bc197c8187878686866040518663ffffffff1660e01b8152600401612cff959493929190614acd565b6020604051808303816000875af1925050508015612d3b57506040513d601f19601f82011682018060405250810190612d389190614b4a565b60015b612de057612d47614b84565b806308c379a003612da35750612d5b614ba6565b80612d665750612da5565b806040517f08c379a0000000000000000000000000000000000000000000000000000000008152600401612d9a9190613408565b60405180910390fd5b505b6040517f08c379a0000000000000000000000000000000000000000000000000000000008152600401612dd790614ca8565b60405180910390fd5b63bc197c8160e01b7bffffffffffffffffffffffffffffffffffffffffffffffffffffffff1916817bffffffffffffffffffffffffffffffffffffffffffffffffffffffff191614612e67576040517f08c379a0000000000000000000000000000000000000000000000000000000008152600401612e5e90614d3a565b60405180910390fd5b505b505050505050565b60606000600167ffffffffffffffff811115612e9057612e8f613488565b5b604051908082528060200260200182016040528015612ebe5781602001602082028036833780820191505090505b5090508281600081518110612ed657612ed56142f1565b5b60200260200101818152505080915050919050565b612f0a8473ffffffffffffffffffffffffffffffffffffffff166130c2565b156130ba578373ffffffffffffffffffffffffffffffffffffffff1663f23a6e6187878686866040518663ffffffff1660e01b8152600401612f50959493929190614d5a565b6020604051808303816000875af1925050508015612f8c57506040513d601f19601f82011682018060405250810190612f899190614b4a565b60015b61303157612f98614b84565b806308c379a003612ff45750612fac614ba6565b80612fb75750612ff6565b806040517f08c379a0000000000000000000000000000000000000000000000000000000008152600401612feb9190613408565b60405180910390fd5b505b6040517f08c379a000000000000000000000000000000000000000000000000000000000815260040161302890614ca8565b60405180910390fd5b63f23a6e6160e01b7bffffffffffffffffffffffffffffffffffffffffffffffffffffffff1916817bffffffffffffffffffffffffffffffffffffffffffffffffffffffff1916146130b8576040517f08c379a00000000000000000000000000000000000000000000000000000000081526004016130af90614d3a565b60405180910390fd5b505b505050505050565b6000808273ffffffffffffffffffffffffffffffffffffffff163b119050919050565b6000604051905090565b600080fd5b600080fd5b600073ffffffffffffffffffffffffffffffffffffffff82169050919050565b6000613124826130f9565b9050919050565b61313481613119565b811461313f57600080fd5b50565b6000813590506131518161312b565b92915050565b6000819050919050565b61316a81613157565b811461317557600080fd5b50565b60008135905061318781613161565b92915050565b600080604083850312156131a4576131a36130ef565b5b60006131b285828601613142565b92505060206131c385828601613178565b9150509250929050565b6131d681613157565b82525050565b60006020820190506131f160008301846131cd565b92915050565b60007fffffffff0000000000000000000000000000000000000000000000000000000082169050919050565b61322c816131f7565b811461323757600080fd5b50565b60008135905061324981613223565b92915050565b600060208284031215613265576132646130ef565b5b60006132738482850161323a565b91505092915050565b60008115159050919050565b6132918161327c565b82525050565b60006020820190506132ac6000830184613288565b92915050565b600060ff82169050919050565b6132c8816132b2565b82525050565b60006020820190506132e360008301846132bf565b92915050565b6132f28161327c565b81146132fd57600080fd5b50565b60008135905061330f816132e9565b92915050565b60006020828403121561332b5761332a6130ef565b5b600061333984828501613300565b91505092915050565b600060208284031215613358576133576130ef565b5b600061336684828501613178565b91505092915050565b600081519050919050565b600082825260208201905092915050565b60005b838110156133a957808201518184015260208101905061338e565b838111156133b8576000848401525b50505050565b6000601f19601f8301169050919050565b60006133da8261336f565b6133e4818561337a565b93506133f481856020860161338b565b6133fd816133be565b840191505092915050565b6000602082019050818103600083015261342281846133cf565b905092915050565b613433816132b2565b811461343e57600080fd5b50565b6000813590506134508161342a565b92915050565b60006020828403121561346c5761346b6130ef565b5b600061347a84828501613441565b91505092915050565b600080fd5b7f4e487b7100000000000000000000000000000000000000000000000000000000600052604160045260246000fd5b6134c0826133be565b810181811067ffffffffffffffff821117156134df576134de613488565b5b80604052505050565b60006134f26130e5565b90506134fe82826134b7565b919050565b600067ffffffffffffffff82111561351e5761351d613488565b5b602082029050602081019050919050565b600080fd5b600061354761354284613503565b6134e8565b9050808382526020820190506020840283018581111561356a5761356961352f565b5b835b81811015613593578061357f8882613178565b84526020840193505060208101905061356c565b5050509392505050565b600082601f8301126135b2576135b1613483565b5b81356135c2848260208601613534565b91505092915050565b600080fd5b600067ffffffffffffffff8211156135eb576135ea613488565b5b6135f4826133be565b9050602081019050919050565b82818337600083830152505050565b600061362361361e846135d0565b6134e8565b90508281526020810184848401111561363f5761363e6135cb565b5b61364a848285613601565b509392505050565b600082601f83011261366757613666613483565b5b8135613677848260208601613610565b91505092915050565b600080600080600060a0868803121561369c5761369b6130ef565b5b60006136aa88828901613142565b95505060206136bb88828901613142565b945050604086013567ffffffffffffffff8111156136dc576136db6130f4565b5b6136e88882890161359d565b935050606086013567ffffffffffffffff811115613709576137086130f4565b5b6137158882890161359d565b925050608086013567ffffffffffffffff811115613736576137356130f4565b5b61374288828901613652565b9150509295509295909350565b600067ffffffffffffffff82111561376a57613769613488565b5b602082029050602081019050919050565b600061378e6137898461374f565b6134e8565b905080838252602082019050602084028301858111156137b1576137b061352f565b5b835b818110156137da57806137c68882613142565b8452602084019350506020810190506137b3565b5050509392505050565b600082601f8301126137f9576137f8613483565b5b813561380984826020860161377b565b91505092915050565b60008060408385031215613829576138286130ef565b5b600083013567ffffffffffffffff811115613847576138466130f4565b5b613853858286016137e4565b925050602083013567ffffffffffffffff811115613874576138736130f4565b5b6138808582860161359d565b9150509250929050565b600081519050919050565b600082825260208201905092915050565b6000819050602082019050919050565b6138bf81613157565b82525050565b60006138d183836138b6565b60208301905092915050565b6000602082019050919050565b60006138f58261388a565b6138ff8185613895565b935061390a836138a6565b8060005b8381101561393b57815161392288826138c5565b975061392d836138dd565b92505060018101905061390e565b5085935050505092915050565b6000602082019050818103600083015261396281846138ea565b905092915050565b60008060408385031215613981576139806130ef565b5b600061398f85828601613142565b92505060206139a085828601613441565b9150509250929050565b6000602082840312156139c0576139bf6130ef565b5b60006139ce84828501613142565b91505092915050565b600063ffffffff82169050919050565b6139f0816139d7565b82525050565b6000602082019050613a0b60008301846139e7565b92915050565b613a1a81613119565b82525050565b6000602082019050613a356000830184613a11565b92915050565b60008060408385031215613a5257613a516130ef565b5b6000613a6085828601613142565b9250506020613a7185828601613300565b9150509250929050565b60008060408385031215613a9257613a916130ef565b5b6000613aa085828601613142565b9250506020613ab185828601613142565b9150509250929050565b600080600080600060a08688031215613ad757613ad66130ef565b5b6000613ae588828901613142565b9550506020613af688828901613142565b9450506040613b0788828901613178565b9350506060613b1888828901613178565b925050608086013567ffffffffffffffff811115613b3957613b386130f4565b5b613b4588828901613652565b9150509295509295909350565b7f455243313135353a2061646472657373207a65726f206973206e6f742061207660008201527f616c6964206f776e657200000000000000000000000000000000000000000000602082015250565b6000613bae602a8361337a565b9150613bb982613b52565b604082019050919050565b60006020820190508181036000830152613bdd81613ba1565b9050919050565b600081905092915050565b7f68747470733a2f2f697066732e696f2f697066732f516d597436697534526f4460008201527f56636935477547644a54757250423955635748774a373261675161787a54756d60208201527f4367422f00000000000000000000000000000000000000000000000000000000604082015250565b6000613c71604483613be4565b9150613c7c82613bef565b604482019050919050565b6000613c928261336f565b613c9c8185613be4565b9350613cac81856020860161338b565b80840191505092915050565b7f2e6a736f6e000000000000000000000000000000000000000000000000000000600082015250565b6000613cee600583613be4565b9150613cf982613cb8565b600582019050919050565b6000613d0f82613c64565b9150613d1b8284613c87565b9150613d2682613ce1565b915081905092915050565b7f496e76616c696420546f6b656e20496400000000000000000000000000000000600082015250565b6000613d6760108361337a565b9150613d7282613d31565b602082019050919050565b60006020820190508181036000830152613d9681613d5a565b9050919050565b7f4e6674204e6f7420466f756e6400000000000000000000000000000000000000600082015250565b6000613dd3600d8361337a565b9150613dde82613d9d565b602082019050919050565b60006020820190508181036000830152613e0281613dc6565b9050919050565b7f526566696c6c204e6f74204e6565646564000000000000000000000000000000600082015250565b6000613e3f60118361337a565b9150613e4a82613e09565b602082019050919050565b60006020820190508181036000830152613e6e81613e32565b9050919050565b7f496e73756666696369656e7420416d6f756e7400000000000000000000000000600082015250565b6000613eab60138361337a565b9150613eb682613e75565b602082019050919050565b60006020820190508181036000830152613eda81613e9e565b9050919050565b7f4e487b7100000000000000000000000000000000000000000000000000000000600052601160045260246000fd5b6000613f1b826139d7565b9150613f26836139d7565b92508263ffffffff03821115613f3f57613f3e613ee1565b5b828201905092915050565b7f417661696c61626c6520616674657220323420486f7572730000000000000000600082015250565b6000613f8060188361337a565b9150613f8b82613f4a565b602082019050919050565b60006020820190508181036000830152613faf81613f73565b9050919050565b7f496e76616c696420546f6b656e20696400000000000000000000000000000000600082015250565b6000613fec60108361337a565b9150613ff782613fb6565b602082019050919050565b6000602082019050818103600083015261401b81613fdf565b9050919050565b7f4e6674206e6f7420666f756e64206f7220457868617573746564000000000000600082015250565b6000614058601a8361337a565b915061406382614022565b602082019050919050565b600060208201905081810360008301526140878161404b565b9050919050565b6000614099826132b2565b9150600082036140ac576140ab613ee1565b5b600182039050919050565b6000819050919050565b60006140dc6140d76140d2846132b2565b6140b7565b613157565b9050919050565b6140ec816140c1565b82525050565b600060408201905061410760008301856140e3565b61411460208301846131cd565b9392505050565b7f455243313135353a2063616c6c6572206973206e6f7420746f6b656e206f776e60008201527f6572206f7220617070726f766564000000000000000000000000000000000000602082015250565b6000614177602e8361337a565b91506141828261411b565b604082019050919050565b600060208201905081810360008301526141a68161416a565b9050919050565b600081905092915050565b50565b60006141c86000836141ad565b91506141d3826141b8565b600082019050919050565b60006141e9826141bb565b9150819050919050565b7f5478204661696c65640000000000000000000000000000000000000000000000600082015250565b600061422960098361337a565b9150614234826141f3565b602082019050919050565b600060208201905081810360008301526142588161421c565b9050919050565b7f455243313135353a206163636f756e747320616e6420696473206c656e67746860008201527f206d69736d617463680000000000000000000000000000000000000000000000602082015250565b60006142bb60298361337a565b91506142c68261425f565b604082019050919050565b600060208201905081810360008301526142ea816142ae565b9050919050565b7f4e487b7100000000000000000000000000000000000000000000000000000000600052603260045260246000fd5b600061432b82613157565b91507fffffffffffffffffffffffffffffffffffffffffffffffffffffffffffffffff820361435d5761435c613ee1565b5b600182019050919050565b7f496e76616c696420746f6b656e20496400000000000000000000000000000000600082015250565b600061439e60108361337a565b91506143a982614368565b602082019050919050565b600060208201905081810360008301526143cd81614391565b9050919050565b7f5573657220616c726561647920686f6c64732053696c766572204e6674000000600082015250565b600061440a601d8361337a565b9150614415826143d4565b602082019050919050565b60006020820190508181036000830152614439816143fd565b9050919050565b60006060820190506144556000830186613a11565b61446260208301856140e3565b61446f60408301846140e3565b949350505050565b7f5573657220616c726561647920686f6c647320476f6c64204e66740000000000600082015250565b60006144ad601b8361337a565b91506144b882614477565b602082019050919050565b600060208201905081810360008301526144dc816144a0565b9050919050565b7f416c7265616479206f776e7320612073696c766572206e667400000000000000600082015250565b600061451960198361337a565b9150614524826144e3565b602082019050919050565b600060208201905081810360008301526145488161450c565b9050919050565b7f496e636f7272656374207061796d656e7420616d6f756e740000000000000000600082015250565b600061458560188361337a565b91506145908261454f565b602082019050919050565b600060208201905081810360008301526145b481614578565b9050919050565b7f4f776e61626c653a206e6577206f776e657220697320746865207a65726f206160008201527f6464726573730000000000000000000000000000000000000000000000000000602082015250565b600061461760268361337a565b9150614622826145bb565b604082019050919050565b600060208201905081810360008301526146468161460a565b9050919050565b7f4f776e61626c653a2063616c6c6572206973206e6f7420746865206f776e6572600082015250565b600061468360208361337a565b915061468e8261464d565b602082019050919050565b600060208201905081810360008301526146b281614676565b9050919050565b7f4e487b7100000000000000000000000000000000000000000000000000000000600052601260045260246000fd5b7f455243313135353a2069647320616e6420616d6f756e7473206c656e6774682060008201527f6d69736d61746368000000000000000000000000000000000000000000000000602082015250565b600061474460288361337a565b915061474f826146e8565b604082019050919050565b6000602082019050818103600083015261477381614737565b9050919050565b7f455243313135353a207472616e7366657220746f20746865207a65726f20616460008201527f6472657373000000000000000000000000000000000000000000000000000000602082015250565b60006147d660258361337a565b91506147e18261477a565b604082019050919050565b60006020820190508181036000830152614805816147c9565b9050919050565b7f455243313135353a20696e73756666696369656e742062616c616e636520666f60008201527f72207472616e7366657200000000000000000000000000000000000000000000602082015250565b6000614868602a8361337a565b91506148738261480c565b604082019050919050565b600060208201905081810360008301526148978161485b565b9050919050565b60006148a982613157565b91506148b483613157565b9250827fffffffffffffffffffffffffffffffffffffffffffffffffffffffffffffffff038211156148e9576148e8613ee1565b5b828201905092915050565b6000604082019050818103600083015261490e81856138ea565b9050818103602083015261492281846138ea565b90509392505050565b7f455243313135353a206d696e7420746f20746865207a65726f2061646472657360008201527f7300000000000000000000000000000000000000000000000000000000000000602082015250565b600061498760218361337a565b91506149928261492b565b604082019050919050565b600060208201905081810360008301526149b68161497a565b9050919050565b60006040820190506149d260008301856131cd565b6149df60208301846131cd565b9392505050565b7f455243313135353a2073657474696e6720617070726f76616c2073746174757360008201527f20666f722073656c660000000000000000000000000000000000000000000000602082015250565b6000614a4260298361337a565b9150614a4d826149e6565b604082019050919050565b60006020820190508181036000830152614a7181614a35565b9050919050565b600081519050919050565b600082825260208201905092915050565b6000614a9f82614a78565b614aa98185614a83565b9350614ab981856020860161338b565b614ac2816133be565b840191505092915050565b600060a082019050614ae26000830188613a11565b614aef6020830187613a11565b8181036040830152614b0181866138ea565b90508181036060830152614b1581856138ea565b90508181036080830152614b298184614a94565b90509695505050505050565b600081519050614b4481613223565b92915050565b600060208284031215614b6057614b5f6130ef565b5b6000614b6e84828501614b35565b91505092915050565b60008160e01c9050919050565b600060033d1115614ba35760046000803e614ba0600051614b77565b90505b90565b600060443d10614c3357614bb86130e5565b60043d036004823e80513d602482011167ffffffffffffffff82111715614be0575050614c33565b808201805167ffffffffffffffff811115614bfe5750505050614c33565b80602083010160043d038501811115614c1b575050505050614c33565b614c2a826020018501866134b7565b82955050505050505b90565b7f455243313135353a207472616e7366657220746f206e6f6e2d4552433131353560008201527f526563656976657220696d706c656d656e746572000000000000000000000000602082015250565b6000614c9260348361337a565b9150614c9d82614c36565b604082019050919050565b60006020820190508181036000830152614cc181614c85565b9050919050565b7f455243313135353a204552433131353552656365697665722072656a6563746560008201527f6420746f6b656e73000000000000000000000000000000000000000000000000602082015250565b6000614d2460288361337a565b9150614d2f82614cc8565b604082019050919050565b60006020820190508181036000830152614d5381614d17565b9050919050565b600060a082019050614d6f6000830188613a11565b614d7c6020830187613a11565b614d8960408301866131cd565b614d9660608301856131cd565b8181036080830152614da88184614a94565b9050969550505050505056fea26469706673582212201430e958b9f63ea2344eb90a357245585fa1df9afee232192992e164b22d447764736f6c634300080f0033",
  "linkReferences": {},
  "deployedLinkReferences": {}
}