{
  "_format": "hh-sol-artifact-1",
  "contractName": "MagiskNft",
  "sourceName": "contracts/MagicNft.sol",
  "abi": [
    {
      "inputs": [],
      "stateMutability": "nonpayable",
      "type": "constructor"
    },
    {
      "anonymous": false,
      "inputs": [
        {
          "indexed": true,
          "internalType": "address",
          "name": "account",
          "type": "address"
        },
        {
          "indexed": true,
          "internalType": "address",
          "name": "operator",
          "type": "address"
        },
        {
          "indexed": false,
          "internalType": "bool",
          "name": "approved",
          "type": "bool"
        }
      ],
      "name": "ApprovalForAll",
      "type": "event"
    },
    {
      "anonymous": false,
      "inputs": [
        {
          "indexed": false,
          "internalType": "address",
          "name": "account",
          "type": "address"
        },
        {
          "indexed": false,
          "internalType": "uint256",
          "name": "tokenId",
          "type": "uint256"
        },
        {
          "indexed": false,
          "internalType": "uint256",
          "name": "limitAvailable",
          "type": "uint256"
        }
      ],
      "name": "NFTMinted",
      "type": "event"
    },
    {
      "anonymous": false,
      "inputs": [
        {
          "indexed": false,
          "internalType": "address",
          "name": "user",
          "type": "address"
        },
        {
          "indexed": false,
          "internalType": "uint256",
          "name": "id",
          "type": "uint256"
        },
        {
          "indexed": false,
          "internalType": "uint256",
          "name": "limitAvailable",
          "type": "uint256"
        }
      ],
      "name": "NFTUsed",
      "type": "event"
    },
    {
      "anonymous": false,
      "inputs": [
        {
          "indexed": true,
          "internalType": "address",
          "name": "previousOwner",
          "type": "address"
        },
        {
          "indexed": true,
          "internalType": "address",
          "name": "newOwner",
          "type": "address"
        }
      ],
      "name": "OwnershipTransferred",
      "type": "event"
    },
    {
      "anonymous": false,
      "inputs": [
        {
          "indexed": true,
          "internalType": "address",
          "name": "operator",
          "type": "address"
        },
        {
          "indexed": true,
          "internalType": "address",
          "name": "from",
          "type": "address"
        },
        {
          "indexed": true,
          "internalType": "address",
          "name": "to",
          "type": "address"
        },
        {
          "indexed": false,
          "internalType": "uint256[]",
          "name": "ids",
          "type": "uint256[]"
        },
        {
          "indexed": false,
          "internalType": "uint256[]",
          "name": "values",
          "type": "uint256[]"
        }
      ],
      "name": "TransferBatch",
      "type": "event"
    },
    {
      "anonymous": false,
      "inputs": [
        {
          "indexed": true,
          "internalType": "address",
          "name": "operator",
          "type": "address"
        },
        {
          "indexed": true,
          "internalType": "address",
          "name": "from",
          "type": "address"
        },
        {
          "indexed": true,
          "internalType": "address",
          "name": "to",
          "type": "address"
        },
        {
          "indexed": false,
          "internalType": "uint256",
          "name": "id",
          "type": "uint256"
        },
        {
          "indexed": false,
          "internalType": "uint256",
          "name": "value",
          "type": "uint256"
        }
      ],
      "name": "TransferSingle",
      "type": "event"
    },
    {
      "anonymous": false,
      "inputs": [
        {
          "indexed": false,
          "internalType": "string",
          "name": "value",
          "type": "string"
        },
        {
          "indexed": true,
          "internalType": "uint256",
          "name": "id",
          "type": "uint256"
        }
      ],
      "name": "URI",
      "type": "event"
    },
    {
      "inputs": [],
      "name": "GOLD_NFT_ID",
      "outputs": [
        {
          "internalType": "uint8",
          "name": "",
          "type": "uint8"
        }
      ],
      "stateMutability": "view",
      "type": "function"
    },
    {
      "inputs": [],
      "name": "GOLD_NFT_PRICE",
      "outputs": [
        {
          "internalType": "uint256",
          "name": "",
          "type": "uint256"
        }
      ],
      "stateMutability": "view",
      "type": "function"
    },
    {
      "inputs": [],
      "name": "GOLD_USE_LIMIT",
      "outputs": [
        {
          "internalType": "uint8",
          "name": "",
          "type": "uint8"
        }
      ],
      "stateMutability": "view",
      "type": "function"
    },
    {
      "inputs": [],
      "name": "NAME",
      "outputs": [
        {
          "internalType": "string",
          "name": "",
          "type": "string"
        }
      ],
      "stateMutability": "view",
      "type": "function"
    },
    {
      "inputs": [],
      "name": "SILVER_NFT_ID",
      "outputs": [
        {
          "internalType": "uint8",
          "name": "",
          "type": "uint8"
        }
      ],
      "stateMutability": "view",
      "type": "function"
    },
    {
      "inputs": [],
      "name": "SILVER_NFT_PRICE",
      "outputs": [
        {
          "internalType": "uint256",
          "name": "",
          "type": "uint256"
        }
      ],
      "stateMutability": "view",
      "type": "function"
    },
    {
      "inputs": [],
      "name": "SILVER_USE_LIMIT",
      "outputs": [
        {
          "internalType": "uint8",
          "name": "",
          "type": "uint8"
        }
      ],
      "stateMutability": "view",
      "type": "function"
    },
    {
      "inputs": [],
      "name": "SYMBOL",
      "outputs": [
        {
          "internalType": "string",
          "name": "",
          "type": "string"
        }
      ],
      "stateMutability": "view",
      "type": "function"
    },
    {
      "inputs": [
        {
          "internalType": "address",
          "name": "account",
          "type": "address"
        },
        {
          "internalType": "uint256",
          "name": "id",
          "type": "uint256"
        }
      ],
      "name": "balanceOf",
      "outputs": [
        {
          "internalType": "uint256",
          "name": "",
          "type": "uint256"
        }
      ],
      "stateMutability": "view",
      "type": "function"
    },
    {
      "inputs": [
        {
          "internalType": "address[]",
          "name": "accounts",
          "type": "address[]"
        },
        {
          "internalType": "uint256[]",
          "name": "ids",
          "type": "uint256[]"
        }
      ],
      "name": "balanceOfBatch",
      "outputs": [
        {
          "internalType": "uint256[]",
          "name": "",
          "type": "uint256[]"
        }
      ],
      "stateMutability": "view",
      "type": "function"
    },
    {
      "inputs": [],
      "name": "buyGoldNft",
      "outputs": [],
      "stateMutability": "payable",
      "type": "function"
    },
    {
      "inputs": [],
      "name": "buySilverNft",
      "outputs": [],
      "stateMutability": "payable",
      "type": "function"
    },
    {
      "inputs": [
        {
          "internalType": "address",
          "name": "account",
          "type": "address"
        },
        {
          "internalType": "uint8",
          "name": "tokenId",
          "type": "uint8"
        }
      ],
      "name": "dropTo",
      "outputs": [],
      "stateMutability": "nonpayable",
      "type": "function"
    },
    {
      "inputs": [
        {
          "internalType": "address",
          "name": "user",
          "type": "address"
        },
        {
          "internalType": "uint8",
          "name": "tokenId",
          "type": "uint8"
        }
      ],
      "name": "getUserNFTLimit",
      "outputs": [
        {
          "internalType": "uint8",
          "name": "",
          "type": "uint8"
        }
      ],
      "stateMutability": "view",
      "type": "function"
    },
    {
      "inputs": [
        {
          "internalType": "address",
          "name": "",
          "type": "address"
        }
      ],
      "name": "hasGoldNft",
      "outputs": [
        {
          "internalType": "bool",
          "name": "",
          "type": "bool"
        }
      ],
      "stateMutability": "view",
      "type": "function"
    },
    {
      "inputs": [
        {
          "internalType": "address",
          "name": "",
          "type": "address"
        }
      ],
      "name": "hasSilverNft",
      "outputs": [
        {
          "internalType": "bool",
          "name": "",
          "type": "bool"
        }
      ],
      "stateMutability": "view",
      "type": "function"
    },
    {
      "inputs": [
        {
          "internalType": "address",
          "name": "account",
          "type": "address"
        },
        {
          "internalType": "address",
          "name": "operator",
          "type": "address"
        }
      ],
      "name": "isApprovedForAll",
      "outputs": [
        {
          "internalType": "bool",
          "name": "",
          "type": "bool"
        }
      ],
      "stateMutability": "view",
      "type": "function"
    },
    {
      "inputs": [],
      "name": "owner",
      "outputs": [
        {
          "internalType": "address",
          "name": "",
          "type": "address"
        }
      ],
      "stateMutability": "view",
      "type": "function"
    },
    {
      "inputs": [],
      "name": "renounceOwnership",
      "outputs": [],
      "stateMutability": "nonpayable",
      "type": "function"
    },
    {
      "inputs": [
        {
          "internalType": "address",
          "name": "from",
          "type": "address"
        },
        {
          "internalType": "address",
          "name": "to",
          "type": "address"
        },
        {
          "internalType": "uint256[]",
          "name": "ids",
          "type": "uint256[]"
        },
        {
          "internalType": "uint256[]",
          "name": "amounts",
          "type": "uint256[]"
        },
        {
          "internalType": "bytes",
          "name": "data",
          "type": "bytes"
        }
      ],
      "name": "safeBatchTransferFrom",
      "outputs": [],
      "stateMutability": "nonpayable",
      "type": "function"
    },
    {
      "inputs": [
        {
          "internalType": "address",
          "name": "from",
          "type": "address"
        },
        {
          "internalType": "address",
          "name": "to",
          "type": "address"
        },
        {
          "internalType": "uint256",
          "name": "id",
          "type": "uint256"
        },
        {
          "internalType": "uint256",
          "name": "amount",
          "type": "uint256"
        },
        {
          "internalType": "bytes",
          "name": "data",
          "type": "bytes"
        }
      ],
      "name": "safeTransferFrom",
      "outputs": [],
      "stateMutability": "nonpayable",
      "type": "function"
    },
    {
      "inputs": [
        {
          "internalType": "address",
          "name": "operator",
          "type": "address"
        },
        {
          "internalType": "bool",
          "name": "approved",
          "type": "bool"
        }
      ],
      "name": "setApprovalForAll",
      "outputs": [],
      "stateMutability": "nonpayable",
      "type": "function"
    },
    {
      "inputs": [
        {
          "internalType": "bytes4",
          "name": "interfaceId",
          "type": "bytes4"
        }
      ],
      "name": "supportsInterface",
      "outputs": [
        {
          "internalType": "bool",
          "name": "",
          "type": "bool"
        }
      ],
      "stateMutability": "view",
      "type": "function"
    },
    {
      "inputs": [
        {
          "internalType": "address",
          "name": "newOwner",
          "type": "address"
        }
      ],
      "name": "transferOwnership",
      "outputs": [],
      "stateMutability": "nonpayable",
      "type": "function"
    },
    {
      "inputs": [
        {
          "internalType": "uint256",
          "name": "tokenId",
          "type": "uint256"
        }
      ],
      "name": "uri",
      "outputs": [
        {
          "internalType": "string",
          "name": "",
          "type": "string"
        }
      ],
      "stateMutability": "pure",
      "type": "function"
    },
    {
      "inputs": [
        {
          "internalType": "uint8",
          "name": "tokenId",
          "type": "uint8"
        }
      ],
      "name": "useNFT",
      "outputs": [],
      "stateMutability": "nonpayable",
      "type": "function"
    }
  ],
  "bytecode": "0x60806040523480156200001157600080fd5b506040518060200160405280600081525062000033816200005a60201b60201c565b5062000054620000486200006f60201b60201c565b6200007760201b60201c565b6200049e565b80600290816200006b9190620003b7565b5050565b600033905090565b6000600360009054906101000a900473ffffffffffffffffffffffffffffffffffffffff16905081600360006101000a81548173ffffffffffffffffffffffffffffffffffffffff021916908373ffffffffffffffffffffffffffffffffffffffff1602179055508173ffffffffffffffffffffffffffffffffffffffff168173ffffffffffffffffffffffffffffffffffffffff167f8be0079c531659141344cd1fd0a4f28419497f9722a3daafe3b4186f6b6457e060405160405180910390a35050565b600081519050919050565b7f4e487b7100000000000000000000000000000000000000000000000000000000600052604160045260246000fd5b7f4e487b7100000000000000000000000000000000000000000000000000000000600052602260045260246000fd5b60006002820490506001821680620001bf57607f821691505b602082108103620001d557620001d462000177565b5b50919050565b60008190508160005260206000209050919050565b60006020601f8301049050919050565b600082821b905092915050565b6000600883026200023f7fffffffffffffffffffffffffffffffffffffffffffffffffffffffffffffffff8262000200565b6200024b868362000200565b95508019841693508086168417925050509392505050565b6000819050919050565b6000819050919050565b600062000298620002926200028c8462000263565b6200026d565b62000263565b9050919050565b6000819050919050565b620002b48362000277565b620002cc620002c3826200029f565b8484546200020d565b825550505050565b600090565b620002e3620002d4565b620002f0818484620002a9565b505050565b5b8181101562000318576200030c600082620002d9565b600181019050620002f6565b5050565b601f82111562000367576200033181620001db565b6200033c84620001f0565b810160208510156200034c578190505b620003646200035b85620001f0565b830182620002f5565b50505b505050565b600082821c905092915050565b60006200038c600019846008026200036c565b1980831691505092915050565b6000620003a7838362000379565b9150826002028217905092915050565b620003c2826200013d565b67ffffffffffffffff811115620003de57620003dd62000148565b5b620003ea8254620001a6565b620003f78282856200031c565b600060209050601f8311600181146200042f57600084156200041a578287015190505b62000426858262000399565b86555062000496565b601f1984166200043f86620001db565b60005b82811015620004695784890151825560018201915060208501945060208101905062000442565b8683101562000489578489015162000485601f89168262000379565b8355505b6001600288020188555050505b505050505050565b6147ad80620004ae6000396000f3fe6080604052600436106101805760003560e01c806379029bf3116100d1578063a22cb4651161008a578063e985e9c511610064578063e985e9c514610557578063f242432a14610594578063f2fde38b146105bd578063f76f8d78146105e657610180565b8063a22cb465146104d8578063a3f4df7e14610501578063e796933e1461052c57610180565b806379029bf3146103e75780638da5cb5b146104125780638f83936a1461043d578063927cd9c114610468578063a1742108146104a5578063a1e9d565146104af57610180565b80634e1273f41161013e5780635c85b9fd116101185780635c85b9fd1461033d5780635f01e79814610368578063715018a6146103a557806377a1bf43146103bc57610180565b80634e1273f4146102b957806350b92a32146102f6578063521d122c1461030057610180565b8062fdd58e1461018557806301ffc9a7146101c2578063079f0b68146101ff5780630e89341c1461022a5780632a194f24146102675780632eb2c2d614610290575b600080fd5b34801561019157600080fd5b506101ac60048036038101906101a79190612d21565b610611565b6040516101b99190612d70565b60405180910390f35b3480156101ce57600080fd5b506101e960048036038101906101e49190612de3565b6106d9565b6040516101f69190612e2b565b60405180910390f35b34801561020b57600080fd5b506102146107bb565b6040516102219190612e62565b60405180910390f35b34801561023657600080fd5b50610251600480360381019061024c9190612e7d565b6107c0565b60405161025e9190612f43565b60405180910390f35b34801561027357600080fd5b5061028e60048036038101906102899190612f91565b6107f1565b005b34801561029c57600080fd5b506102b760048036038101906102b291906131bb565b610c50565b005b3480156102c557600080fd5b506102e060048036038101906102db919061334d565b610cf1565b6040516102ed9190613483565b60405180910390f35b6102fe610e0a565b005b34801561030c57600080fd5b50610327600480360381019061032291906134a5565b611008565b6040516103349190612e62565b60405180910390f35b34801561034957600080fd5b50610352611076565b60405161035f9190612e62565b60405180910390f35b34801561037457600080fd5b5061038f600480360381019061038a91906134e5565b61107b565b60405161039c9190612e2b565b60405180910390f35b3480156103b157600080fd5b506103ba61109b565b005b3480156103c857600080fd5b506103d16110af565b6040516103de9190612e62565b60405180910390f35b3480156103f357600080fd5b506103fc6110b4565b6040516104099190612d70565b60405180910390f35b34801561041e57600080fd5b506104276110bf565b6040516104349190613521565b60405180910390f35b34801561044957600080fd5b506104526110e9565b60405161045f9190612d70565b60405180910390f35b34801561047457600080fd5b5061048f600480360381019061048a91906134e5565b6110f4565b60405161049c9190612e2b565b60405180910390f35b6104ad611114565b005b3480156104bb57600080fd5b506104d660048036038101906104d191906134a5565b611313565b005b3480156104e457600080fd5b506104ff60048036038101906104fa9190613568565b6116e4565b005b34801561050d57600080fd5b506105166116fa565b6040516105239190612f43565b60405180910390f35b34801561053857600080fd5b50610541611733565b60405161054e9190612e62565b60405180910390f35b34801561056357600080fd5b5061057e600480360381019061057991906135a8565b611738565b60405161058b9190612e2b565b60405180910390f35b3480156105a057600080fd5b506105bb60048036038101906105b691906135e8565b6117cc565b005b3480156105c957600080fd5b506105e460048036038101906105df91906134e5565b61186d565b005b3480156105f257600080fd5b506105fb6118f0565b6040516106089190612f43565b60405180910390f35b60008073ffffffffffffffffffffffffffffffffffffffff168373ffffffffffffffffffffffffffffffffffffffff1603610681576040517f08c379a0000000000000000000000000000000000000000000000000000000008152600401610678906136f1565b60405180910390fd5b60008083815260200190815260200160002060008473ffffffffffffffffffffffffffffffffffffffff1673ffffffffffffffffffffffffffffffffffffffff16815260200190815260200160002054905092915050565b60007fd9b67a26000000000000000000000000000000000000000000000000000000007bffffffffffffffffffffffffffffffffffffffffffffffffffffffff1916827bffffffffffffffffffffffffffffffffffffffffffffffffffffffff191614806107a457507f0e89341c000000000000000000000000000000000000000000000000000000007bffffffffffffffffffffffffffffffffffffffffffffffffffffffff1916827bffffffffffffffffffffffffffffffffffffffffffffffffffffffff1916145b806107b457506107b382611929565b5b9050919050565b600181565b60606107cb82611993565b6040516020016107db9190613831565b6040516020818303038152906040529050919050565b60008160ff161480610806575060018160ff16145b610845576040517f08c379a000000000000000000000000000000000000000000000000000000000815260040161083c906138aa565b60405180910390fd5b6000600460003373ffffffffffffffffffffffffffffffffffffffff1673ffffffffffffffffffffffffffffffffffffffff16815260200190815260200160002060008360ff1660ff16815260200190815260200160002060009054906101000a900460ff1660ff16116108ee576040517f08c379a00000000000000000000000000000000000000000000000000000000081526004016108e590613916565b60405180910390fd5b600081905060008160ff1603610aa7576000600460003373ffffffffffffffffffffffffffffffffffffffff1673ffffffffffffffffffffffffffffffffffffffff16815260200190815260200160002060008360ff1660ff168152602001908152602001600020600081819054906101000a900460ff168092919061097390613965565b91906101000a81548160ff021916908360ff16021790555060ff1690507f82f87ac690e2fc8b4ee2c1c09d862a683849b5e3017d7dc932cba25f355d0cbe3383836040516109c3939291906139c9565b60405180910390a16000600460003373ffffffffffffffffffffffffffffffffffffffff1673ffffffffffffffffffffffffffffffffffffffff16815260200190815260200160002060008460ff1660ff16815260200190815260200160002060009054906101000a900460ff1660ff1603610aa1576000600560003373ffffffffffffffffffffffffffffffffffffffff1673ffffffffffffffffffffffffffffffffffffffff16815260200190815260200160002060006101000a81548160ff021916908315150217905550610aa0338360ff166001611a61565b5b50610c4c565b6000600460003373ffffffffffffffffffffffffffffffffffffffff1673ffffffffffffffffffffffffffffffffffffffff16815260200190815260200160002060008360ff1660ff168152602001908152602001600020600081819054906101000a900460ff1680929190610b1c90613965565b91906101000a81548160ff021916908360ff16021790555060ff1690507f82f87ac690e2fc8b4ee2c1c09d862a683849b5e3017d7dc932cba25f355d0cbe338383604051610b6c939291906139c9565b60405180910390a16000600460003373ffffffffffffffffffffffffffffffffffffffff1673ffffffffffffffffffffffffffffffffffffffff16815260200190815260200160002060008460ff1660ff16815260200190815260200160002060009054906101000a900460ff1660ff1603610c4a576000600660003373ffffffffffffffffffffffffffffffffffffffff1673ffffffffffffffffffffffffffffffffffffffff16815260200190815260200160002060006101000a81548160ff021916908315150217905550610c49338360ff166001611a61565b5b505b5050565b610c58611ca7565b73ffffffffffffffffffffffffffffffffffffffff168573ffffffffffffffffffffffffffffffffffffffff161480610c9e5750610c9d85610c98611ca7565b611738565b5b610cdd576040517f08c379a0000000000000000000000000000000000000000000000000000000008152600401610cd490613a72565b60405180910390fd5b610cea8585858585611caf565b5050505050565b60608151835114610d37576040517f08c379a0000000000000000000000000000000000000000000000000000000008152600401610d2e90613b04565b60405180910390fd5b6000835167ffffffffffffffff811115610d5457610d53612fc3565b5b604051908082528060200260200182016040528015610d825781602001602082028036833780820191505090505b50905060005b8451811015610dff57610dcf858281518110610da757610da6613b24565b5b6020026020010151858381518110610dc257610dc1613b24565b5b6020026020010151610611565b828281518110610de257610de1613b24565b5b60200260200101818152505080610df890613b53565b9050610d88565b508091505092915050565b600560003373ffffffffffffffffffffffffffffffffffffffff1673ffffffffffffffffffffffffffffffffffffffff16815260200190815260200160002060009054906101000a900460ff1615610e97576040517f08c379a0000000000000000000000000000000000000000000000000000000008152600401610e8e90613be7565b60405180910390fd5b660aa87bee538000341015610ee1576040517f08c379a0000000000000000000000000000000000000000000000000000000008152600401610ed890613c53565b60405180910390fd5b6001600560003373ffffffffffffffffffffffffffffffffffffffff1673ffffffffffffffffffffffffffffffffffffffff16815260200190815260200160002060006101000a81548160ff0219169083151502179055506005600460003373ffffffffffffffffffffffffffffffffffffffff1673ffffffffffffffffffffffffffffffffffffffff16815260200190815260200160002060008060ff1660ff16815260200190815260200160002060006101000a81548160ff021916908360ff160217905550610fc933600060ff16600160405180602001604052806000815250611fd0565b7f3a8a89b59a31c39a36febecb987e0657ab7b7c73b60ebacb44dcb9886c2d5c8a3360006005604051610ffe93929190613c73565b60405180910390a1565b6000600460008473ffffffffffffffffffffffffffffffffffffffff1673ffffffffffffffffffffffffffffffffffffffff16815260200190815260200160002060008360ff1660ff16815260200190815260200160002060009054906101000a900460ff16905092915050565b600581565b60066020528060005260406000206000915054906101000a900460ff1681565b6110a3612180565b6110ad60006121fe565b565b600881565b660aa87bee53800081565b6000600360009054906101000a900473ffffffffffffffffffffffffffffffffffffffff16905090565b6611c37937e0800081565b60056020528060005260406000206000915054906101000a900460ff1681565b600660003373ffffffffffffffffffffffffffffffffffffffff1673ffffffffffffffffffffffffffffffffffffffff16815260200190815260200160002060009054906101000a900460ff16156111a1576040517f08c379a000000000000000000000000000000000000000000000000000000000815260040161119890613cf6565b60405180910390fd5b6611c37937e080003410156111eb576040517f08c379a00000000000000000000000000000000000000000000000000000000081526004016111e290613c53565b60405180910390fd5b6001600660003373ffffffffffffffffffffffffffffffffffffffff1673ffffffffffffffffffffffffffffffffffffffff16815260200190815260200160002060006101000a81548160ff0219169083151502179055506008600460003373ffffffffffffffffffffffffffffffffffffffff1673ffffffffffffffffffffffffffffffffffffffff1681526020019081526020016000206000600160ff1660ff16815260200190815260200160002060006101000a81548160ff021916908360ff1602179055506112d433600160ff16600160405180602001604052806000815250611fd0565b7f3a8a89b59a31c39a36febecb987e0657ab7b7c73b60ebacb44dcb9886c2d5c8a336001600860405161130993929190613c73565b60405180910390a1565b61131b612180565b60008160ff161480611330575060018160ff16145b61136f576040517f08c379a000000000000000000000000000000000000000000000000000000000815260040161136690613d62565b60405180910390fd5b60008160ff160361152f57600560008373ffffffffffffffffffffffffffffffffffffffff1673ffffffffffffffffffffffffffffffffffffffff16815260200190815260200160002060009054906101000a900460ff1615611407576040517f08c379a00000000000000000000000000000000000000000000000000000000081526004016113fe90613dce565b60405180910390fd5b6001600560008473ffffffffffffffffffffffffffffffffffffffff1673ffffffffffffffffffffffffffffffffffffffff16815260200190815260200160002060006101000a81548160ff0219169083151502179055506005600460008473ffffffffffffffffffffffffffffffffffffffff1673ffffffffffffffffffffffffffffffffffffffff16815260200190815260200160002060008360ff1660ff16815260200190815260200160002060006101000a81548160ff021916908360ff1602179055506114ee828260ff16600160405180602001604052806000815250611fd0565b7f3a8a89b59a31c39a36febecb987e0657ab7b7c73b60ebacb44dcb9886c2d5c8a8282600560405161152293929190613c73565b60405180910390a16116e0565b600660008373ffffffffffffffffffffffffffffffffffffffff1673ffffffffffffffffffffffffffffffffffffffff16815260200190815260200160002060009054906101000a900460ff16156115bc576040517f08c379a00000000000000000000000000000000000000000000000000000000081526004016115b390613e3a565b60405180910390fd5b6001600660008473ffffffffffffffffffffffffffffffffffffffff1673ffffffffffffffffffffffffffffffffffffffff16815260200190815260200160002060006101000a81548160ff0219169083151502179055506008600460008473ffffffffffffffffffffffffffffffffffffffff1673ffffffffffffffffffffffffffffffffffffffff16815260200190815260200160002060008360ff1660ff16815260200190815260200160002060006101000a81548160ff021916908360ff1602179055506116a3828260ff16600160405180602001604052806000815250611fd0565b7f3a8a89b59a31c39a36febecb987e0657ab7b7c73b60ebacb44dcb9886c2d5c8a828260086040516116d793929190613c73565b60405180910390a15b5050565b6116f66116ef611ca7565b83836122c4565b5050565b6040518060400160405280600a81526020017f4d616769736b204e66740000000000000000000000000000000000000000000081525081565b600081565b6000600160008473ffffffffffffffffffffffffffffffffffffffff1673ffffffffffffffffffffffffffffffffffffffff16815260200190815260200160002060008373ffffffffffffffffffffffffffffffffffffffff1673ffffffffffffffffffffffffffffffffffffffff16815260200190815260200160002060009054906101000a900460ff16905092915050565b6117d4611ca7565b73ffffffffffffffffffffffffffffffffffffffff168573ffffffffffffffffffffffffffffffffffffffff16148061181a575061181985611814611ca7565b611738565b5b611859576040517f08c379a000000000000000000000000000000000000000000000000000000000815260040161185090613a72565b60405180910390fd5b6118668585858585612430565b5050505050565b611875612180565b600073ffffffffffffffffffffffffffffffffffffffff168173ffffffffffffffffffffffffffffffffffffffff16036118e4576040517f08c379a00000000000000000000000000000000000000000000000000000000081526004016118db90613ecc565b60405180910390fd5b6118ed816121fe565b50565b6040518060400160405280600681526020017f4d414749534b000000000000000000000000000000000000000000000000000081525081565b60007f01ffc9a7000000000000000000000000000000000000000000000000000000007bffffffffffffffffffffffffffffffffffffffffffffffffffffffff1916827bffffffffffffffffffffffffffffffffffffffffffffffffffffffff1916149050919050565b6060600060016119a2846126cb565b01905060008167ffffffffffffffff8111156119c1576119c0612fc3565b5b6040519080825280601f01601f1916602001820160405280156119f35781602001600182028036833780820191505090505b509050600082602001820190505b600115611a56578080600190039150507f3031323334353637383961626364656600000000000000000000000000000000600a86061a8153600a8581611a4a57611a49613eec565b5b04945060008503611a01575b819350505050919050565b600073ffffffffffffffffffffffffffffffffffffffff168373ffffffffffffffffffffffffffffffffffffffff1603611ad0576040517f08c379a0000000000000000000000000000000000000000000000000000000008152600401611ac790613f8d565b60405180910390fd5b6000611ada611ca7565b90506000611ae78461281e565b90506000611af48461281e565b9050611b1483876000858560405180602001604052806000815250612898565b600080600087815260200190815260200160002060008873ffffffffffffffffffffffffffffffffffffffff1673ffffffffffffffffffffffffffffffffffffffff16815260200190815260200160002054905084811015611bab576040517f08c379a0000000000000000000000000000000000000000000000000000000008152600401611ba29061401f565b60405180910390fd5b84810360008088815260200190815260200160002060008973ffffffffffffffffffffffffffffffffffffffff1673ffffffffffffffffffffffffffffffffffffffff16815260200190815260200160002081905550600073ffffffffffffffffffffffffffffffffffffffff168773ffffffffffffffffffffffffffffffffffffffff168573ffffffffffffffffffffffffffffffffffffffff167fc3d58168c5ae7397731d063d5bbf3d657854427343f4c083240f7aacaa2d0f628989604051611c7892919061403f565b60405180910390a4611c9e848860008686604051806020016040528060008152506128a0565b50505050505050565b600033905090565b8151835114611cf3576040517f08c379a0000000000000000000000000000000000000000000000000000000008152600401611cea906140da565b60405180910390fd5b600073ffffffffffffffffffffffffffffffffffffffff168473ffffffffffffffffffffffffffffffffffffffff1603611d62576040517f08c379a0000000000000000000000000000000000000000000000000000000008152600401611d599061416c565b60405180910390fd5b6000611d6c611ca7565b9050611d7c818787878787612898565b60005b8451811015611f2d576000858281518110611d9d57611d9c613b24565b5b602002602001015190506000858381518110611dbc57611dbb613b24565b5b60200260200101519050600080600084815260200190815260200160002060008b73ffffffffffffffffffffffffffffffffffffffff1673ffffffffffffffffffffffffffffffffffffffff16815260200190815260200160002054905081811015611e5d576040517f08c379a0000000000000000000000000000000000000000000000000000000008152600401611e54906141fe565b60405180910390fd5b81810360008085815260200190815260200160002060008c73ffffffffffffffffffffffffffffffffffffffff1673ffffffffffffffffffffffffffffffffffffffff168152602001908152602001600020819055508160008085815260200190815260200160002060008b73ffffffffffffffffffffffffffffffffffffffff1673ffffffffffffffffffffffffffffffffffffffff1681526020019081526020016000206000828254611f12919061421e565b9250508190555050505080611f2690613b53565b9050611d7f565b508473ffffffffffffffffffffffffffffffffffffffff168673ffffffffffffffffffffffffffffffffffffffff168273ffffffffffffffffffffffffffffffffffffffff167f4a39dc06d4c0dbc64b70af90fd698a233a518aa5d07e595d983b8c0526c8f7fb8787604051611fa4929190614274565b60405180910390a4611fba8187878787876128a0565b611fc88187878787876128a8565b505050505050565b600073ffffffffffffffffffffffffffffffffffffffff168473ffffffffffffffffffffffffffffffffffffffff160361203f576040517f08c379a00000000000000000000000000000000000000000000000000000000081526004016120369061431d565b60405180910390fd5b6000612049611ca7565b905060006120568561281e565b905060006120638561281e565b905061207483600089858589612898565b8460008088815260200190815260200160002060008973ffffffffffffffffffffffffffffffffffffffff1673ffffffffffffffffffffffffffffffffffffffff16815260200190815260200160002060008282546120d3919061421e565b925050819055508673ffffffffffffffffffffffffffffffffffffffff16600073ffffffffffffffffffffffffffffffffffffffff168473ffffffffffffffffffffffffffffffffffffffff167fc3d58168c5ae7397731d063d5bbf3d657854427343f4c083240f7aacaa2d0f62898960405161215192919061403f565b60405180910390a4612168836000898585896128a0565b61217783600089898989612a7f565b50505050505050565b612188611ca7565b73ffffffffffffffffffffffffffffffffffffffff166121a66110bf565b73ffffffffffffffffffffffffffffffffffffffff16146121fc576040517f08c379a00000000000000000000000000000000000000000000000000000000081526004016121f390614389565b60405180910390fd5b565b6000600360009054906101000a900473ffffffffffffffffffffffffffffffffffffffff16905081600360006101000a81548173ffffffffffffffffffffffffffffffffffffffff021916908373ffffffffffffffffffffffffffffffffffffffff1602179055508173ffffffffffffffffffffffffffffffffffffffff168173ffffffffffffffffffffffffffffffffffffffff167f8be0079c531659141344cd1fd0a4f28419497f9722a3daafe3b4186f6b6457e060405160405180910390a35050565b8173ffffffffffffffffffffffffffffffffffffffff168373ffffffffffffffffffffffffffffffffffffffff1603612332576040517f08c379a00000000000000000000000000000000000000000000000000000000081526004016123299061441b565b60405180910390fd5b80600160008573ffffffffffffffffffffffffffffffffffffffff1673ffffffffffffffffffffffffffffffffffffffff16815260200190815260200160002060008473ffffffffffffffffffffffffffffffffffffffff1673ffffffffffffffffffffffffffffffffffffffff16815260200190815260200160002060006101000a81548160ff0219169083151502179055508173ffffffffffffffffffffffffffffffffffffffff168373ffffffffffffffffffffffffffffffffffffffff167f17307eab39ab6107e8899845ad3d59bd9653f200f220920489ca2b5937696c31836040516124239190612e2b565b60405180910390a3505050565b600073ffffffffffffffffffffffffffffffffffffffff168473ffffffffffffffffffffffffffffffffffffffff160361249f576040517f08c379a00000000000000000000000000000000000000000000000000000000081526004016124969061416c565b60405180910390fd5b60006124a9611ca7565b905060006124b68561281e565b905060006124c38561281e565b90506124d3838989858589612898565b600080600088815260200190815260200160002060008a73ffffffffffffffffffffffffffffffffffffffff1673ffffffffffffffffffffffffffffffffffffffff1681526020019081526020016000205490508581101561256a576040517f08c379a0000000000000000000000000000000000000000000000000000000008152600401612561906141fe565b60405180910390fd5b85810360008089815260200190815260200160002060008b73ffffffffffffffffffffffffffffffffffffffff1673ffffffffffffffffffffffffffffffffffffffff168152602001908152602001600020819055508560008089815260200190815260200160002060008a73ffffffffffffffffffffffffffffffffffffffff1673ffffffffffffffffffffffffffffffffffffffff168152602001908152602001600020600082825461261f919061421e565b925050819055508773ffffffffffffffffffffffffffffffffffffffff168973ffffffffffffffffffffffffffffffffffffffff168573ffffffffffffffffffffffffffffffffffffffff167fc3d58168c5ae7397731d063d5bbf3d657854427343f4c083240f7aacaa2d0f628a8a60405161269c92919061403f565b60405180910390a46126b2848a8a86868a6128a0565b6126c0848a8a8a8a8a612a7f565b505050505050505050565b600080600090507a184f03e93ff9f4daa797ed6e38ed64bf6a1f0100000000000000008310612729577a184f03e93ff9f4daa797ed6e38ed64bf6a1f010000000000000000838161271f5761271e613eec565b5b0492506040810190505b6d04ee2d6d415b85acef81000000008310612766576d04ee2d6d415b85acef8100000000838161275c5761275b613eec565b5b0492506020810190505b662386f26fc10000831061279557662386f26fc10000838161278b5761278a613eec565b5b0492506010810190505b6305f5e10083106127be576305f5e10083816127b4576127b3613eec565b5b0492506008810190505b61271083106127e35761271083816127d9576127d8613eec565b5b0492506004810190505b6064831061280657606483816127fc576127fb613eec565b5b0492506002810190505b600a8310612815576001810190505b80915050919050565b60606000600167ffffffffffffffff81111561283d5761283c612fc3565b5b60405190808252806020026020018201604052801561286b5781602001602082028036833780820191505090505b509050828160008151811061288357612882613b24565b5b60200260200101818152505080915050919050565b505050505050565b505050505050565b6128c78473ffffffffffffffffffffffffffffffffffffffff16612c56565b15612a77578373ffffffffffffffffffffffffffffffffffffffff1663bc197c8187878686866040518663ffffffff1660e01b815260040161290d959493929190614490565b6020604051808303816000875af192505050801561294957506040513d601f19601f82011682018060405250810190612946919061450d565b60015b6129ee57612955614547565b806308c379a0036129b15750612969614569565b8061297457506129b3565b806040517f08c379a00000000000000000000000000000000000000000000000000000000081526004016129a89190612f43565b60405180910390fd5b505b6040517f08c379a00000000000000000000000000000000000000000000000000000000081526004016129e59061466b565b60405180910390fd5b63bc197c8160e01b7bffffffffffffffffffffffffffffffffffffffffffffffffffffffff1916817bffffffffffffffffffffffffffffffffffffffffffffffffffffffff191614612a75576040517f08c379a0000000000000000000000000000000000000000000000000000000008152600401612a6c906146fd565b60405180910390fd5b505b505050505050565b612a9e8473ffffffffffffffffffffffffffffffffffffffff16612c56565b15612c4e578373ffffffffffffffffffffffffffffffffffffffff1663f23a6e6187878686866040518663ffffffff1660e01b8152600401612ae495949392919061471d565b6020604051808303816000875af1925050508015612b2057506040513d601f19601f82011682018060405250810190612b1d919061450d565b60015b612bc557612b2c614547565b806308c379a003612b885750612b40614569565b80612b4b5750612b8a565b806040517f08c379a0000000000000000000000000000000000000000000000000000000008152600401612b7f9190612f43565b60405180910390fd5b505b6040517f08c379a0000000000000000000000000000000000000000000000000000000008152600401612bbc9061466b565b60405180910390fd5b63f23a6e6160e01b7bffffffffffffffffffffffffffffffffffffffffffffffffffffffff1916817bffffffffffffffffffffffffffffffffffffffffffffffffffffffff191614612c4c576040517f08c379a0000000000000000000000000000000000000000000000000000000008152600401612c43906146fd565b60405180910390fd5b505b505050505050565b6000808273ffffffffffffffffffffffffffffffffffffffff163b119050919050565b6000604051905090565b600080fd5b600080fd5b600073ffffffffffffffffffffffffffffffffffffffff82169050919050565b6000612cb882612c8d565b9050919050565b612cc881612cad565b8114612cd357600080fd5b50565b600081359050612ce581612cbf565b92915050565b6000819050919050565b612cfe81612ceb565b8114612d0957600080fd5b50565b600081359050612d1b81612cf5565b92915050565b60008060408385031215612d3857612d37612c83565b5b6000612d4685828601612cd6565b9250506020612d5785828601612d0c565b9150509250929050565b612d6a81612ceb565b82525050565b6000602082019050612d856000830184612d61565b92915050565b60007fffffffff0000000000000000000000000000000000000000000000000000000082169050919050565b612dc081612d8b565b8114612dcb57600080fd5b50565b600081359050612ddd81612db7565b92915050565b600060208284031215612df957612df8612c83565b5b6000612e0784828501612dce565b91505092915050565b60008115159050919050565b612e2581612e10565b82525050565b6000602082019050612e406000830184612e1c565b92915050565b600060ff82169050919050565b612e5c81612e46565b82525050565b6000602082019050612e776000830184612e53565b92915050565b600060208284031215612e9357612e92612c83565b5b6000612ea184828501612d0c565b91505092915050565b600081519050919050565b600082825260208201905092915050565b60005b83811015612ee4578082015181840152602081019050612ec9565b83811115612ef3576000848401525b50505050565b6000601f19601f8301169050919050565b6000612f1582612eaa565b612f1f8185612eb5565b9350612f2f818560208601612ec6565b612f3881612ef9565b840191505092915050565b60006020820190508181036000830152612f5d8184612f0a565b905092915050565b612f6e81612e46565b8114612f7957600080fd5b50565b600081359050612f8b81612f65565b92915050565b600060208284031215612fa757612fa6612c83565b5b6000612fb584828501612f7c565b91505092915050565b600080fd5b7f4e487b7100000000000000000000000000000000000000000000000000000000600052604160045260246000fd5b612ffb82612ef9565b810181811067ffffffffffffffff8211171561301a57613019612fc3565b5b80604052505050565b600061302d612c79565b90506130398282612ff2565b919050565b600067ffffffffffffffff82111561305957613058612fc3565b5b602082029050602081019050919050565b600080fd5b600061308261307d8461303e565b613023565b905080838252602082019050602084028301858111156130a5576130a461306a565b5b835b818110156130ce57806130ba8882612d0c565b8452602084019350506020810190506130a7565b5050509392505050565b600082601f8301126130ed576130ec612fbe565b5b81356130fd84826020860161306f565b91505092915050565b600080fd5b600067ffffffffffffffff82111561312657613125612fc3565b5b61312f82612ef9565b9050602081019050919050565b82818337600083830152505050565b600061315e6131598461310b565b613023565b90508281526020810184848401111561317a57613179613106565b5b61318584828561313c565b509392505050565b600082601f8301126131a2576131a1612fbe565b5b81356131b284826020860161314b565b91505092915050565b600080600080600060a086880312156131d7576131d6612c83565b5b60006131e588828901612cd6565b95505060206131f688828901612cd6565b945050604086013567ffffffffffffffff81111561321757613216612c88565b5b613223888289016130d8565b935050606086013567ffffffffffffffff81111561324457613243612c88565b5b613250888289016130d8565b925050608086013567ffffffffffffffff81111561327157613270612c88565b5b61327d8882890161318d565b9150509295509295909350565b600067ffffffffffffffff8211156132a5576132a4612fc3565b5b602082029050602081019050919050565b60006132c96132c48461328a565b613023565b905080838252602082019050602084028301858111156132ec576132eb61306a565b5b835b8181101561331557806133018882612cd6565b8452602084019350506020810190506132ee565b5050509392505050565b600082601f83011261333457613333612fbe565b5b81356133448482602086016132b6565b91505092915050565b6000806040838503121561336457613363612c83565b5b600083013567ffffffffffffffff81111561338257613381612c88565b5b61338e8582860161331f565b925050602083013567ffffffffffffffff8111156133af576133ae612c88565b5b6133bb858286016130d8565b9150509250929050565b600081519050919050565b600082825260208201905092915050565b6000819050602082019050919050565b6133fa81612ceb565b82525050565b600061340c83836133f1565b60208301905092915050565b6000602082019050919050565b6000613430826133c5565b61343a81856133d0565b9350613445836133e1565b8060005b8381101561347657815161345d8882613400565b975061346883613418565b925050600181019050613449565b5085935050505092915050565b6000602082019050818103600083015261349d8184613425565b905092915050565b600080604083850312156134bc576134bb612c83565b5b60006134ca85828601612cd6565b92505060206134db85828601612f7c565b9150509250929050565b6000602082840312156134fb576134fa612c83565b5b600061350984828501612cd6565b91505092915050565b61351b81612cad565b82525050565b60006020820190506135366000830184613512565b92915050565b61354581612e10565b811461355057600080fd5b50565b6000813590506135628161353c565b92915050565b6000806040838503121561357f5761357e612c83565b5b600061358d85828601612cd6565b925050602061359e85828601613553565b9150509250929050565b600080604083850312156135bf576135be612c83565b5b60006135cd85828601612cd6565b92505060206135de85828601612cd6565b9150509250929050565b600080600080600060a0868803121561360457613603612c83565b5b600061361288828901612cd6565b955050602061362388828901612cd6565b945050604061363488828901612d0c565b935050606061364588828901612d0c565b925050608086013567ffffffffffffffff81111561366657613665612c88565b5b6136728882890161318d565b9150509295509295909350565b7f455243313135353a2061646472657373207a65726f206973206e6f742061207660008201527f616c6964206f776e657200000000000000000000000000000000000000000000602082015250565b60006136db602a83612eb5565b91506136e68261367f565b604082019050919050565b6000602082019050818103600083015261370a816136ce565b9050919050565b600081905092915050565b7f68747470733a2f2f697066732e696f2f697066732f516d597436697534526f4460008201527f56636935477547644a54757250423955635748774a373261675161787a54756d60208201527f4367422f00000000000000000000000000000000000000000000000000000000604082015250565b600061379e604483613711565b91506137a98261371c565b604482019050919050565b60006137bf82612eaa565b6137c98185613711565b93506137d9818560208601612ec6565b80840191505092915050565b7f2e6a736f6e000000000000000000000000000000000000000000000000000000600082015250565b600061381b600583613711565b9150613826826137e5565b600582019050919050565b600061383c82613791565b915061384882846137b4565b91506138538261380e565b915081905092915050565b7f496e76616c696420546f6b656e20696400000000000000000000000000000000600082015250565b6000613894601083612eb5565b915061389f8261385e565b602082019050919050565b600060208201905081810360008301526138c381613887565b9050919050565b7f4e6674206e6f7420666f756e64206f7220457868617573746564000000000000600082015250565b6000613900601a83612eb5565b915061390b826138ca565b602082019050919050565b6000602082019050818103600083015261392f816138f3565b9050919050565b7f4e487b7100000000000000000000000000000000000000000000000000000000600052601160045260246000fd5b600061397082612e46565b91506000820361398357613982613936565b5b600182039050919050565b6000819050919050565b60006139b36139ae6139a984612e46565b61398e565b612ceb565b9050919050565b6139c381613998565b82525050565b60006060820190506139de6000830186613512565b6139eb60208301856139ba565b6139f86040830184612d61565b949350505050565b7f455243313135353a2063616c6c6572206973206e6f7420746f6b656e206f776e60008201527f6572206f7220617070726f766564000000000000000000000000000000000000602082015250565b6000613a5c602e83612eb5565b9150613a6782613a00565b604082019050919050565b60006020820190508181036000830152613a8b81613a4f565b9050919050565b7f455243313135353a206163636f756e747320616e6420696473206c656e67746860008201527f206d69736d617463680000000000000000000000000000000000000000000000602082015250565b6000613aee602983612eb5565b9150613af982613a92565b604082019050919050565b60006020820190508181036000830152613b1d81613ae1565b9050919050565b7f4e487b7100000000000000000000000000000000000000000000000000000000600052603260045260246000fd5b6000613b5e82612ceb565b91507fffffffffffffffffffffffffffffffffffffffffffffffffffffffffffffffff8203613b9057613b8f613936565b5b600182019050919050565b7f416c7265616479206f776e7320612073696c766572206e667400000000000000600082015250565b6000613bd1601983612eb5565b9150613bdc82613b9b565b602082019050919050565b60006020820190508181036000830152613c0081613bc4565b9050919050565b7f496e636f7272656374207061796d656e7420616d6f756e740000000000000000600082015250565b6000613c3d601883612eb5565b9150613c4882613c07565b602082019050919050565b60006020820190508181036000830152613c6c81613c30565b9050919050565b6000606082019050613c886000830186613512565b613c9560208301856139ba565b613ca260408301846139ba565b949350505050565b7f416c7265616479204f776e73206120476f6c64204e6674000000000000000000600082015250565b6000613ce0601783612eb5565b9150613ceb82613caa565b602082019050919050565b60006020820190508181036000830152613d0f81613cd3565b9050919050565b7f496e76616c696420746f6b656e20496400000000000000000000000000000000600082015250565b6000613d4c601083612eb5565b9150613d5782613d16565b602082019050919050565b60006020820190508181036000830152613d7b81613d3f565b9050919050565b7f5573657220616c726561647920686f6c64732053696c766572204e6674000000600082015250565b6000613db8601d83612eb5565b9150613dc382613d82565b602082019050919050565b60006020820190508181036000830152613de781613dab565b9050919050565b7f5573657220616c726561647920686f6c647320476f6c64204e66740000000000600082015250565b6000613e24601b83612eb5565b9150613e2f82613dee565b602082019050919050565b60006020820190508181036000830152613e5381613e17565b9050919050565b7f4f776e61626c653a206e6577206f776e657220697320746865207a65726f206160008201527f6464726573730000000000000000000000000000000000000000000000000000602082015250565b6000613eb6602683612eb5565b9150613ec182613e5a565b604082019050919050565b60006020820190508181036000830152613ee581613ea9565b9050919050565b7f4e487b7100000000000000000000000000000000000000000000000000000000600052601260045260246000fd5b7f455243313135353a206275726e2066726f6d20746865207a65726f206164647260008201527f6573730000000000000000000000000000000000000000000000000000000000602082015250565b6000613f77602383612eb5565b9150613f8282613f1b565b604082019050919050565b60006020820190508181036000830152613fa681613f6a565b9050919050565b7f455243313135353a206275726e20616d6f756e7420657863656564732062616c60008201527f616e636500000000000000000000000000000000000000000000000000000000602082015250565b6000614009602483612eb5565b915061401482613fad565b604082019050919050565b6000602082019050818103600083015261403881613ffc565b9050919050565b60006040820190506140546000830185612d61565b6140616020830184612d61565b9392505050565b7f455243313135353a2069647320616e6420616d6f756e7473206c656e6774682060008201527f6d69736d61746368000000000000000000000000000000000000000000000000602082015250565b60006140c4602883612eb5565b91506140cf82614068565b604082019050919050565b600060208201905081810360008301526140f3816140b7565b9050919050565b7f455243313135353a207472616e7366657220746f20746865207a65726f20616460008201527f6472657373000000000000000000000000000000000000000000000000000000602082015250565b6000614156602583612eb5565b9150614161826140fa565b604082019050919050565b6000602082019050818103600083015261418581614149565b9050919050565b7f455243313135353a20696e73756666696369656e742062616c616e636520666f60008201527f72207472616e7366657200000000000000000000000000000000000000000000602082015250565b60006141e8602a83612eb5565b91506141f38261418c565b604082019050919050565b60006020820190508181036000830152614217816141db565b9050919050565b600061422982612ceb565b915061423483612ceb565b9250827fffffffffffffffffffffffffffffffffffffffffffffffffffffffffffffffff0382111561426957614268613936565b5b828201905092915050565b6000604082019050818103600083015261428e8185613425565b905081810360208301526142a28184613425565b90509392505050565b7f455243313135353a206d696e7420746f20746865207a65726f2061646472657360008201527f7300000000000000000000000000000000000000000000000000000000000000602082015250565b6000614307602183612eb5565b9150614312826142ab565b604082019050919050565b60006020820190508181036000830152614336816142fa565b9050919050565b7f4f776e61626c653a2063616c6c6572206973206e6f7420746865206f776e6572600082015250565b6000614373602083612eb5565b915061437e8261433d565b602082019050919050565b600060208201905081810360008301526143a281614366565b9050919050565b7f455243313135353a2073657474696e6720617070726f76616c2073746174757360008201527f20666f722073656c660000000000000000000000000000000000000000000000602082015250565b6000614405602983612eb5565b9150614410826143a9565b604082019050919050565b60006020820190508181036000830152614434816143f8565b9050919050565b600081519050919050565b600082825260208201905092915050565b60006144628261443b565b61446c8185614446565b935061447c818560208601612ec6565b61448581612ef9565b840191505092915050565b600060a0820190506144a56000830188613512565b6144b26020830187613512565b81810360408301526144c48186613425565b905081810360608301526144d88185613425565b905081810360808301526144ec8184614457565b90509695505050505050565b60008151905061450781612db7565b92915050565b60006020828403121561452357614522612c83565b5b6000614531848285016144f8565b91505092915050565b60008160e01c9050919050565b600060033d11156145665760046000803e61456360005161453a565b90505b90565b600060443d106145f65761457b612c79565b60043d036004823e80513d602482011167ffffffffffffffff821117156145a35750506145f6565b808201805167ffffffffffffffff8111156145c157505050506145f6565b80602083010160043d0385018111156145de5750505050506145f6565b6145ed82602001850186612ff2565b82955050505050505b90565b7f455243313135353a207472616e7366657220746f206e6f6e2d4552433131353560008201527f526563656976657220696d706c656d656e746572000000000000000000000000602082015250565b6000614655603483612eb5565b9150614660826145f9565b604082019050919050565b6000602082019050818103600083015261468481614648565b9050919050565b7f455243313135353a204552433131353552656365697665722072656a6563746560008201527f6420746f6b656e73000000000000000000000000000000000000000000000000602082015250565b60006146e7602883612eb5565b91506146f28261468b565b604082019050919050565b60006020820190508181036000830152614716816146da565b9050919050565b600060a0820190506147326000830188613512565b61473f6020830187613512565b61474c6040830186612d61565b6147596060830185612d61565b818103608083015261476b8184614457565b9050969550505050505056fea26469706673582212204e8484c478610853883df9dc5410486c1f540edbc8fcd6b06064ab697e89f2c264736f6c634300080f0033",
  "linkReferences": {},
  "deployedLinkReferences": {}
}