{
  "_format": "hh-sol-artifact-1",
  "contractName": "EnterMagisk",
  "sourceName": "contracts/EnterMagisk.sol",
  "abi": [
    {
      "inputs": [
        {
          "internalType": "address",
          "name": "_masgiskNft",
          "type": "address"
        }
      ],
      "stateMutability": "nonpayable",
      "type": "constructor"
    },
    {
      "inputs": [],
      "name": "claimFreeGifts",
      "outputs": [],
      "stateMutability": "nonpayable",
      "type": "function"
    },
    {
      "inputs": [],
      "name": "coolDown",
      "outputs": [
        {
          "internalType": "uint32",
          "name": "",
          "type": "uint32"
        }
      ],
      "stateMutability": "view",
      "type": "function"
    },
    {
      "inputs": [
        {
          "internalType": "uint8",
          "name": "tokenId",
          "type": "uint8"
        }
      ],
      "name": "enterLounge",
      "outputs": [],
      "stateMutability": "nonpayable",
      "type": "function"
    },
    {
      "inputs": [
        {
          "internalType": "address",
          "name": "",
          "type": "address"
        }
      ],
      "name": "lastInteraction",
      "outputs": [
        {
          "internalType": "uint32",
          "name": "",
          "type": "uint32"
        }
      ],
      "stateMutability": "view",
      "type": "function"
    },
    {
      "inputs": [],
      "name": "magiskNft",
      "outputs": [
        {
          "internalType": "contract MagiskNft",
          "name": "",
          "type": "address"
        }
      ],
      "stateMutability": "view",
      "type": "function"
    }
  ],
  "bytecode": "0x608060405262015180600060146101000a81548163ffffffff021916908363ffffffff16021790555034801561003457600080fd5b5060405161082c38038061082c833981810160405281019061005691906100ff565b806000806101000a81548173ffffffffffffffffffffffffffffffffffffffff021916908373ffffffffffffffffffffffffffffffffffffffff1602179055505061012c565b600080fd5b600073ffffffffffffffffffffffffffffffffffffffff82169050919050565b60006100cc826100a1565b9050919050565b6100dc816100c1565b81146100e757600080fd5b50565b6000815190506100f9816100d3565b92915050565b6000602082840312156101155761011461009c565b5b6000610123848285016100ea565b91505092915050565b6106f18061013b6000396000f3fe608060405234801561001057600080fd5b50600436106100575760003560e01c8063113f6e751461005c57806333d4489e146100665780634d056f6d146100845780635ff9dcbd146100a2578063765d3536146100d2575b600080fd5b6100646100ee565b005b61006e610203565b60405161007b9190610480565b60405180910390f35b61008c610227565b60405161009991906104ba565b60405180910390f35b6100bc60048036038101906100b79190610518565b61023d565b6040516100c991906104ba565b60405180910390f35b6100ec60048036038101906100e7919061057e565b610260565b005b600060149054906101000a900463ffffffff16600160003373ffffffffffffffffffffffffffffffffffffffff1673ffffffffffffffffffffffffffffffffffffffff16815260200190815260200160002060009054906101000a900463ffffffff1661015b91906105da565b63ffffffff164210156101a3576040517f08c379a000000000000000000000000000000000000000000000000000000000815260040161019a90610671565b60405180910390fd5b42600160003373ffffffffffffffffffffffffffffffffffffffff1673ffffffffffffffffffffffffffffffffffffffff16815260200190815260200160002060006101000a81548163ffffffff021916908363ffffffff160217905550565b60008054906101000a900473ffffffffffffffffffffffffffffffffffffffff1681565b600060149054906101000a900463ffffffff1681565b60016020528060005260406000206000915054906101000a900463ffffffff1681565b600060149054906101000a900463ffffffff16600160003373ffffffffffffffffffffffffffffffffffffffff1673ffffffffffffffffffffffffffffffffffffffff16815260200190815260200160002060009054906101000a900463ffffffff166102cd91906105da565b63ffffffff16421015610315576040517f08c379a000000000000000000000000000000000000000000000000000000000815260040161030c90610671565b60405180910390fd5b60008054906101000a900473ffffffffffffffffffffffffffffffffffffffff1673ffffffffffffffffffffffffffffffffffffffff16632a194f24826040518263ffffffff1660e01b815260040161036e91906106a0565b600060405180830381600087803b15801561038857600080fd5b505af115801561039c573d6000803e3d6000fd5b5050505042600160003373ffffffffffffffffffffffffffffffffffffffff1673ffffffffffffffffffffffffffffffffffffffff16815260200190815260200160002060006101000a81548163ffffffff021916908363ffffffff16021790555050565b600073ffffffffffffffffffffffffffffffffffffffff82169050919050565b6000819050919050565b600061044661044161043c84610401565b610421565b610401565b9050919050565b60006104588261042b565b9050919050565b600061046a8261044d565b9050919050565b61047a8161045f565b82525050565b60006020820190506104956000830184610471565b92915050565b600063ffffffff82169050919050565b6104b48161049b565b82525050565b60006020820190506104cf60008301846104ab565b92915050565b600080fd5b60006104e582610401565b9050919050565b6104f5816104da565b811461050057600080fd5b50565b600081359050610512816104ec565b92915050565b60006020828403121561052e5761052d6104d5565b5b600061053c84828501610503565b91505092915050565b600060ff82169050919050565b61055b81610545565b811461056657600080fd5b50565b60008135905061057881610552565b92915050565b600060208284031215610594576105936104d5565b5b60006105a284828501610569565b91505092915050565b7f4e487b7100000000000000000000000000000000000000000000000000000000600052601160045260246000fd5b60006105e58261049b565b91506105f08361049b565b92508263ffffffff03821115610609576106086105ab565b5b828201905092915050565b600082825260208201905092915050565b7f417661696c61626c6520616674657220323420486f7572730000000000000000600082015250565b600061065b601883610614565b915061066682610625565b602082019050919050565b6000602082019050818103600083015261068a8161064e565b9050919050565b61069a81610545565b82525050565b60006020820190506106b56000830184610691565b9291505056fea2646970667358221220b7a69af5be87504e83a8aba0e0c2780415c2ca6ce0fce4d42c866e82d16d333b64736f6c634300080f0033",
  "linkReferences": {},
  "deployedLinkReferences": {}
}